:020000040000FA
:1000000080312328003008007E1480310B1F212806
:100010002100111E15282000111E152821004D0851
:100020008A004C080A00803121282100911E2128D5
:100030002000911E212821004B088A004A080A004E
:1000400080317E1009008031252881308400943071
:1000500085006C3086000030870003309431E42442
:1000600080312530840095308500CF308600003007
:1000700087000A309431E4248031FD3084009630CA
:10008000850050308600013087001B309431E42415
:100090008031FC01533084000030850019309431E8
:1000A000DE248031A030840000308500243094317B
:1000B000DE248031203084000130850030309431DE
:1000C000DE248031A030840001308500203094315E
:1000D000DE247E10200080316D2896310826803184
:1000E0008B170B17B430F1001730F2009431B424A1
:1000F00080316F30F1001730F2009431AE2480313E
:1001000022000C112000E101D901DA0159088D31DA
:1001100075258031200059088A31B822803100309D
:100120002100BB000030BA000030B9000030B80038
:1001300020005D03031DA028DD018B31F7238031F2
:10014000943175248031003A0319A62997318F27FD
:1001500080312100D90059082000E300630889316B
:10016000A2218031003A0319A62920006008031D4E
:10017000C42863082100D90059082000E200630860
:10018000883143208031A6296103031D9929543009
:100190006306031D2F2907308D31752580311530F9
:1001A0002100DA004B30D900BE30890BD528D90B9D
:1001B000D528DA0BD528000015302100DA004B30A5
:1001C000D900BE30890BE228D90BE228DA0BE228ED
:1001D000000015302100DA004B30D900BE30890B09
:1001E000EF28D90BEF28DA0BEF280000153021009B
:1001F000DA004B30D900BE30890BFC28D90BFC2823
:10020000DA0BFC28000015302100DA004B30D90051
:10021000BE30890B0929D90B0929DA0B09290000FD
:1002200015302100DA004B30D900BE30890B162979
:10023000D90B1629DA0B162900002000E101E00194
:1002400000302100BB000030BA000030B90000309F
:10025000B800200059088D317525803101004630E5
:1002600020006306031DA62900308D3175258031DD
:1002700015302100DA004B30D900BE30890B3E2901
:10028000D90B3E29DA0B3E29000015302100DA0097
:100290004B30D900BE30890B4B29D90B4B29DA0BD7
:1002A0004B29000015302100DA004B30D900BE3058
:1002B000890B5829D90B5829DA0B58290000153019
:1002C0002100DA004B30D900BE30890B6529D90BEB
:1002D0006529DA0B6529000015302100DA004B3062
:1002E000D900BE30890B7229D90B7229DA0B722919
:1002F000000015302100DA004B30D900BE30890BE8
:100300007F29D90B7F29DA0B7F2900002000E1012A
:10031000E00100302100BB000030BA000030B9001D
:100320000030B800200059088D317525803101005A
:10033000A62954306306031DA12962088531FC25D6
:1003400080314630200063060319E00197311827F9
:100350008031003A0319982820006108031D802A83
:100360006003031DCD2901302100B8070030B93DDD
:100370000030BA3D0030BB3D1E30380639043A0427
:100380003B04031DCD290030BB000030BA00003013
:10039000B9000030B8002000E00100309631E226BC
:1003A0008031003A031D7C2A01309631E2268031EB
:1003B000013A031D7C2A02309631E2268031013A4F
:1003C000031D7C2A01302100C2070030C33D0830E4
:1003D0004206073003194306031D9828C201C301D2
:1003E00000302000C8009830C9009531D3258031F5
:1003F00015302100DA004B30D900BE30890BFE29C0
:10040000D90BFE29DA0BFE29000015302100DA0095
:100410004B30D900BE30890B0B2AD90B0B2ADA0BD3
:100420000B2A000015302100DA004B30D900BE3015
:10043000890B182AD90B182ADA0B182A0000153054
:100440002100DA004B30D900BE30890B252AD90BA8
:10045000252ADA0B252A000015302100DA004B305E
:10046000D900BE30890B322AD90B322ADA0B322A54
:10047000000015302100DA004B30D900BE30890B66
:100480003F2AD90B3F2ADA0B3F2A00001530210002
:10049000DA004B30D900BE30890B4C2AD90B4C2ADC
:1004A000DA0B4C2A000015302100DA004B30D9005D
:1004B000BE30890B592AD90B592ADA0B592A000068
:1004C00009302000C8009830C9009531D32580310B
:1004D0002000E101E10AE001E00A00302100BB0058
:1004E0000030BA000030B9000030B80000308D3163
:1004F000752580312000D82A2100C201C301982827
:100500006003031D982801302100B8070030B93D71
:100510000030BA3D0030BB3D3B08031D982A3A0825
:10052000031D982A303038027530393B031CB92A34
:1005300000308D317525803121003B08031DA72A2D
:100540003A08031DA72A7D303902031C9828003081
:10055000BB000030BA000030B9000030B800200005
:1005600059088D31752580312000E001E10101003D
:1005700098280130D90059082000DE075F08031DC4
:10058000CE2A00308D3175258031C83020005E06BE
:10059000031D9828DE01DF01DF0A982807308D311E
:1005A00075258031C83020005E06031D9828DE01C5
:1005B000DF0198282000AD00A801A901AA01AB0124
:1005C000A701A401A5012D080319202B7B080319FD
:1005D000202B2D08083E8600013087008119002B52
:1005E0007B08083E860001308700811D002B2D0806
:1005F000083E8600013087008115A401A40A352B2E
:100600007B08083E8600013087008119172B2D08D2
:10061000083E860001308700811D172B7B08083EAD
:100620008600013087008115A501A50A352B2D080C
:10063000083E8600013087008119352B7B082D2B61
:100640002D08031D262B7B08031D1E2B2D080319C7
:10065000352B7B08031D352B2D08083E8600013005
:1006600087008119352B003008007B08953157250C
:100670008231003A03193F2B2000A701A70A2E0060
:1006800012082000A0002008A1002E00130820005E
:10069000A0002008A2002F0013082000A0002008BE
:1006A000A3009531A125823120002D0803196B2B61
:1006B0002D08043E8600013087000108FF3EA0009F
:1006C0002008AC00A60140302E0098002F009801B1
:1006D00022001D107E2B7B08043E8600013087001F
:1006E0000108FF3EA0002008AC00A601A60A2E00CB
:1006F000980140302F00980022001D14F2012000C4
:100700002D088431A4248231F201F20A7B0884315D
:10071000A4248231200069106911E9116E08943116
:10072000A42482319431782482312000DB01DC0161
:100730002608031DA12B111FE910111F9D2B11135A
:10074000A72B121BA42BE910121FA42B121321306C
:10075000A00020082E00980621302000A0002008CC
:100760002F009806C0302000A00020082E0094061C
:10077000C0302000A00020082F00940620002C1874
:10078000072C2E001A082000D3072E001B0820007B
:10079000D43D2F001A082000D5072F001B08200089
:1007A000D63D2708031DEC2B2E001A0820002A0234
:1007B000F1002E001B0820002B3BF20096319B26F7
:1007C000823171082000DB077208DC3D2E001B0817
:1007D0002000AB002E00032C2F001A0820002A0254
:1007E000F1002F001B0820002B3BF20096319B26C6
:1007F000823171082000DB077208DC3D2F001B08E6
:100800002000AB002F001A082000AA003B2C2E006D
:100810001A082000D3022E001B082000D43B2F0012
:100820001A082000D5022F001B082000D63B2708FD
:10083000031D212C2E001A0820002802F1002E0092
:10084000272C2F001A0820002802F1002F001B0877
:100850002000293BF20096319B268231710820004E
:10086000DB077208DC3D2E001B082000A9002E00CB
:100870001A082000A8002C08031969140130AC02E2
:10088000E91C442C69156914E914691C982B9431EE
:100890007B248231200021082E00920020002208B3
:1008A0002E009300200023082F0093002000691DD4
:1008B0005B2CFB300800E91D5F2CFA30080024088F
:1008C0000319682C2D08083E86000130870081112D
:1008D00025080319712C7B08083E8600013087002B
:1008E00081112D089531C2258231003A0319852CDA
:1008F00020002D0895311B258231003A031D852CDF
:1009000020002D088F316E2782317B089531C2255A
:100910008231003A0319972C7B0895311B258231CF
:10092000003A031D972C7B088F316E2782312E00F1
:1009300096012F0096012E0097012F0097012E009F
:1009400011102F001110332BF9007908031908003A
:100950007208031DAE2CF601F701B22C8030F600B0
:100960000030F7007608F3007308F800790A860073
:10097000013087000108F3007808113EF400F5010A
:100980000730F53D740886007508870073088100FC
:100990007908053E8600013087000108F3007808D9
:1009A000193EF400F5010730F53D7408860075081E
:1009B0008700730881007808133EF300F4010730C4
:1009C000F43D730886007408870050308100FE30C3
:1009D000F3007808183E860087010730873D7308CA
:1009E0008105790895311B258431003A03190C2DB6
:1009F0007908023E8600013087000108F30078087C
:100A0000163EF400F5010730F53D740886007508C0
:100A10008700730881001F2D7808163EF300F4014B
:100A20000730F43D73088600740887002030810089
:100A30007908953112258431003A0319322D79084D
:100A4000033E8600013087000108F3007808173E56
:100A5000F400F5010730F53D74088600750887003D
:100A600073083D2D7808173EF300F4010730F43D7C
:100A70007308860074088700203081007908043EDE
:100A80008600013087000108F300F4010930F335D6
:100A9000F40D890B472D7235533E8600870173088C
:100AA000C03F7408C13F08002000BF00370886001F
:100AB0008701403FB900413FBA00390884003A0835
:100AC00085001200253A031DD92D370886008701BD
:100AD0000130810741310318810AD701D801210073
:100AE000C001C101FF30BE00FF30BF002000370849
:100AF00086008701403FB900413FBA0039088400B1
:100B00003A0885001200633A031DA72D37088600B6
:100B100087010130810741310318810A38088600B6
:100B20008701010884008501023081070008B900AF
:100B30003908BE003E08B9003908B1003F088831C5
:100B4000922020003208B8003108B70008003708AA
:100B500086008701403FB900413FBA003908840050
:100B60003A0885001200253A031DCE2D370886006D
:100B700087010130810741310318810A2530F400D3
:100B80000030F5003F08B9003908F6008931D4215A
:100B900001302000B7000030B80008003708860098
:100BA00087010130810741310318810AB701B8017B
:100BB0000800370886008701403FB900413FBA006E
:100BC000390884003A0885000008BB00BC013B08D6
:100BD000F4003C08F5003F08BD003D08F6008931EF
:100BE000D421853120003708860087010130810734
:100BF00041310318810AC82DF60000302100BB00E6
:100C00000030BA000030B9000030B8007D2E00304E
:100C10008D317525853100308A31B8222000E00100
:100C2000D901DA01080001308D3175258531013097
:100C30008A31B8222000E0010130D9000030DA000A
:100C4000080002308D317525853102308A31B82295
:100C50002000E0010230D9000030DA000800033043
:100C60008D317525853103308A31B8222000E001AD
:100C70000330D9000030DA00080004308D317525CA
:100C8000853104308A31B8222000E0010430D900D7
:100C90000030DA00080005308D31752585310530CA
:100CA0008A31B8222000E0010530D9000030DA0096
:100CB000080006308D317525853106308A31B8221D
:100CC0002000E0010630D9000030DA0008000730CB
:100CD0008D317525853107308A31B8222000E00139
:100CE0000730D9000030DA0008002000E001DD0103
:100CF000DD0A08002000E00108007608F400F50194
:100D00007508003A0319852E7A2E7408303A0319B3
:100D1000072E013A0319132E033A0319212E013A23
:100D200003192F2E073A03193D2E013A03194B2EB2
:100D3000033A0319592E013A0319672E623A03192F
:100D4000752E7A2E080020002408093E8600013006
:100D500087000108803AA50024080E3E8600013075
:100D600087000103FF3A803AA5020318E22E240807
:100D70000A3E8600013087000130810741310318A7
:100D8000810A24080A3E860001308700403FA50002
:100D9000413FA60000302602413003192502031C02
:100DA000242F24080A3E8600013087000030C03F0F
:100DB000C13F240886000130870001088A310922DA
:100DC0008631242F2408093E86000130870001085F
:100DD000A500A601A51BA60324080E3E860001302F
:100DE00087002608803A803C031DF82E2508010262
:100DF00003181B2F02302000A5002408023E8600A5
:100E0000013087002508810024080A3E8600013051
:100E100087000030C03FC13F2408860001308700B2
:100E20000108A5002508F400210056088A0055088D
:100E30000A008731242F200024080A3E8600013052
:100E400087000030C03FC13F200024080C3E8600D0
:100E5000013087000130810741310318810A2408DD
:100E60000C3E8600013087001600403AA5001600AF
:100E7000A504031D080024080C3E860001308700ED
:100E80000030C03FC13F24088E31DF26080020001B
:100E9000C2004208BF00C001BF35C00D3C303F0753
:100EA00084009830403D85000008C1004108C4001E
:100EB0004208BF00C001BF35C00D3D303F07840070
:100EC0009830403D85000008C1004108C500450834
:100ED000BF003F08BB0044088C31512487312000FB
:100EE000C0004008C300B62F44089531C2258731A1
:100EF000003A0319942F20006A08031D832F440829
:100F000088316A208731200044089431FA248731DF
:100F1000200044088600013087000108BF003F0818
:100F2000F1008731FF278731200045089531C22520
:100F30008731003A0319D92F20006A08031DA42F16
:100F4000450888316A208731200045089431FA2409
:100F50008731200045088600013087000108BF0066
:100F60003F08F1008731FF278731D92F4308BF00A1
:100F7000C001BF1BC0034008003A0319C32FFF3A4A
:100F80000319C82FD92F3F08003A0319742FD92FFE
:100F90003F08FB3A0319D92F073A0319D92F013A11
:100FA0000319D92F033A0319D92F013A0319D92F5D
:100FB000D92F200043080800F20021004E08031931
:100FC000DD2F111AE72F720823009A00FC2F11124F
:100FD0007208F10020006808B03E860087017108A1
:100FE00081000130F1007108E80708306802031839
:100FF000E80101302100CE0221001116080008008E
:101000000030F1009030F2003030F3000030F40096
:1010100020308831BB2088312000A00120088A318F
:10102000092288310130FB007B082000A007033033
:101030002002031808000E28F3007308023E860001
:101040000130870002300106031D080073080A3EC4
:101050008600013087000130810741310318810A81
:1010600073080A3E86000130870016000104031D44
:10107000080073080A3E860001308700FF30C03F39
:10108000FF30C13F08002000D2005928E0010800CD
:101090004030C8009830C9005208D000D101500833
:1010A000CA005108CB009531D3252000E001E00AA9
:1010B00008005208D000D1015108003A03196128F4
:1010C00048285008463A03194628123A0319462878
:1010D00048280800F70077088831E6208831F500B5
:1010E0007508F6008B1F84288B137635533E8600D7
:1010F00087017708063E840001308500403F803F2D
:10110000413F813F8B1708007635533E86008701AB
:101110007708063E840001308500403F803F413F14
:10112000813F08002000B60057085804031D9D2881
:101130005808B5005708B400A3285708FF3EB4006C
:10114000FF30583DB5003108B30033082300A0003C
:10115000A101A0302000B3003308A8003508AA0080
:101160003408A90036088B31522320002908B20028
:101170002808B1000800F9007208F8007108F700AB
:101180007908F5007508FA000130F3020030F43BED
:10119000730A0319740A0319080077088400780891
:1011A00085000008F5007508F6000130F7070030EB
:1011B000F83D7608F5007A0886000130870075084A
:1011C00081000130F5007508FA07C428F300F40126
:1011D0007408F100F201F135F20D3C307107840022
:1011E0009830723D850000087306031DF928003011
:1011F00008007408F100F201F135F20D3D3071077D
:1012000084009830723D850000087306031D0A298A
:10121000013008000130F1007108F4070230740257
:101220000318F728E828F900790A860001308700BA
:1012300001089631B226893175082000A000760891
:10124000A100A201A3017908053E860001308700B4
:101250002008C03F2108C13F2208C23F2308C33FE6
:101260007908053E86000130870004308135413120
:10127000810D4131810D4131810D7D31890B36293F
:1012800008002000C5004108C7004008C600210032
:10129000BC01BD01200046088400470885001200FB
:1012A000031967294630C3004308B7004208C40049
:1012B0004408B80045088531542589312000370895
:1012C0002100BC07200038082100BD3D4A2921002B
:1012D0003D082000C10021003C082000C00008009B
:1012E0007C08A03E86008701810123001D1D832903
:1012F0007C08A03E860087018114210049088A00ED
:1013000048080A00893123009D1C91297C08A03ED1
:10131000860087010115210047088A0046080A0057
:1013200089317C08A03E86008701010803199F29A6
:10133000210045088A0044080A00893108009631D6
:1013400084260800F300A8290130080000300800B6
:101350007308F100F2017208003A0319B029A629B6
:101360007108303A0319A429013A0319A429033A50
:101370000319A429013A0319A429073A0319A42936
:10138000013A0319A429033A0319A429013A0319BC
:10139000A429713A0319A429123A0319A429013A7C
:1013A0000319A429A62908007608031D7608031D41
:1013B000DD2974089431A92408007608033E8600CC
:1013C0008701160001040319002A7608033E8600EF
:1013D0008701403FF700413FF800760A8600870109
:1013E000403FF900413FFA007A08803AFB00780854
:1013F000803A7B02031DFE29770879020318080052
:10140000760A860087010130810741310318810A7D
:101410000800F9007908F7000330F735FF3E031D97
:101420000D2A7735203EF8007808FA007A08023E47
:1014300086000130870081017A08053E8600013070
:1014400087000030C03F0030C13FC23FC33F7A0831
:101450000A3E8600013087000030C03FC13F7A0855
:101460000C3E8600013087000030C03FC13F7A0A41
:1014700086000130870001089531E4250800F90055
:1014800079088831E6208A31F5007508F800790876
:101490009531C2258A31003A0319662A7908063E39
:1014A0008600013087007835533E84008501403F37
:1014B0000002F1000131413F003BF20096319B26D2
:1014C0008A317208F7007108F600682AF601F70100
:1014D00000307702653003197602031C732A7908FD
:1014E0009431EA24080079089431F224080021009C
:1014F00091127030F1000930F2009431CC248A311D
:10150000210011125130F1001730F2009431D22431
:101510008A310A3023009F0090309D0024309E00C5
:1015200040309B0003309C007030F1001430F2001A
:101530009431C0248A318430F1001430F2009431A7
:10154000C6248A317230F1001430F2009431BA248A
:101550002000E401E801E7010830F30073082100EE
:10156000CE00FC012000E601E501210091160800F3
:10157000F300E22A22000D178C160C160800220038
:101580000D178C160C12080022000D178C120C1669
:10159000080022000D178C120C12080022000D13F7
:1015A0008C160C16080022000D138C160C12080065
:1015B00022000D138C120C16080022000D138C1241
:1015C0000C1208007308F100F2017208003A0319C6
:1015D000EA2A042B7108003A0319BA2A013A0319BE
:1015E000BF2A033A0319C42A013A0319C92A073A40
:1015F0000319CE2A013A0319D32A033A0319D82A28
:10160000013A0319DD2A042B0800FB007B08023E87
:1016100086000130870001080319412B7B08033E37
:10162000860001308700403FF900413FFA00FA365A
:10163000F90CFA36F90C7B08033E8600013087006E
:101640007908810241317A08813B7F317B0A86002B
:101650000130870001089631B2267508F900760836
:10166000FA00FA36F90CFA36F90C7B08033E8600CC
:10167000013087007908810741317A08813D7F3147
:1016800008007B0A86000130870001089631B226E7
:101690007B08033E8600013087007508C03F76084E
:1016A000C13F08002000B0002100401C602B20003A
:1016B0003008AB002B08A00028089731DA278B31BF
:1016C0002000AA1B682B2A08AF002908AE006A2B4D
:1016D000AE01AF01AC01AD012D08803AAB002F087F
:1016E000803A2B02031D762B2E082C0203188A2B1E
:1016F0002030F4000030F50020003008AB002B084B
:10170000F6008931D4218B3101302000AC07003044
:10171000AD3D6C2B21004018962B20003008AB000B
:101720002B08A00028089731DA278B3120002808E1
:101730009631CA2620002E087107A8002F08723D96
:10174000A90008002000AB002B08A9000330A93530
:10175000FF3E031DA72B2935203EAA002A08AC0016
:101760002C0A8600013087000108953173258B31E2
:10177000003A0319080020002C0A86000130870077
:101780000108963142268B31003A031908002000E7
:101790002C0895313B258B3120002C088E315826A2
:1017A0008B3120002C08023E860001308700033078
:1017B0000102031CE32B2C0886000130870001087E
:1017C0008A3109228B3120002C08A9002908A400A5
:1017D0002C08023E8600013087000135CF3E86008E
:1017E0008701413F8A00403F0A008B310800302CBE
:1017F0001430C8009830C9009531D325080019303D
:10180000C8009830C9009531D32508001E30C800A3
:101810009830C9009531D32508002330C80098308E
:10182000C9009531D32508002830C8009830C90078
:101830009531D32508002D30C8009830C900953166
:10184000D32508003230C8009830C9009531D3251F
:1018500008003730C8009830C9009531D3250800FA
:1018600020005A08003A0319362C502C5908003A27
:101870000319F82B013A0319FF2B033A0319062C1D
:10188000013A03190D2C073A0319142C013A0319D4
:101890001B2C033A0319222C013A0319292C502C32
:1018A00008002000BE000530BC003C08BD003E081A
:1018B000031D672C3B08031D672CFF300800013017
:1018C0002000BD023D08031D672CFC3008003B08CA
:1018D000BC003C08FB003E088231DA228C31003A21
:1018E000031D5F2C20003E0803197A2C3E088A3124
:1018F0003F228C3120003B080319822C3B088A319F
:101900003F228C3120003E08953157258C31003A1A
:101910000319922C20003E0895311B258C31003A8A
:10192000031DA22C20003B08953157258C31003A2D
:101930000319AB2C20003B0895311B258C31003A54
:101940000319AB2C20003B08BC003C08AE003E084D
:101950008D31E225080000300800200024080A3EEE
:10196000860001308700403FA500413FA6000030BF
:1019700026020930031925020318C32C24088931D3
:1019800013218C31C72C24088E31DF268C312000A6
:1019900024080A3E8600013087000130810741316A
:1019A0000318810A24080A3E860001308700403F60
:1019B000A500413FA6000030260210300319250281
:1019C000031C08002408053E860001308700403FC4
:1019D000A500413FA600423FA700433FA8000430B6
:1019E000A836A70CA60CA50C890BF02C2408033EE6
:1019F0008600013087002508C03F2608C13F240823
:101A0000023E8600013087008101810A24080A3ED7
:101A10008600013087000030C03FC13F0800200031
:101A200024080A3E860001308700403FA500413F60
:101A3000A60007302602D03003192502031C372DDB
:101A4000240886000130870001088A3109228D317F
:101A5000200024088600013087000108A500250821
:101A6000F4006D088A006C080A008D310800240813
:101A7000093E8600013087000108803AA50024084D
:101A80000E3E86000130870024080E3E840001309F
:101A9000850000360102803AA502031808002408D8
:101AA000023E8600013087008101810A24080A3E37
:101AB0008600013087000030C03FC13F24080C3E43
:101AC000860001308700FF30C03FFB30C13F240853
:101AD0008600013087000108A5002508F4006D0884
:101AE0008A006C080A008D310800F300BF2D943184
:101AF00098248D31943190248D31943188240800BC
:101B0000943198248D31943190248D3194318C24EA
:101B10000800943198248D31943194248D3194317E
:101B200088240800943198248D31943194248D3187
:101B300094318C24080094319C248D31943190246C
:101B40008D3194318824080094319C248D31943156
:101B500090248D3194318C24080094319C248D3153
:101B6000943194248D3194318824080094319C243C
:101B70008D31943194248D3194318C240800730874
:101B8000F100F2017208003A0319C72DE12D710826
:101B9000003A0319772D013A0319802D033A0319EE
:101BA000892D013A0319922D073A03199B2D013A09
:101BB0000319A42D033A0319AD2D013A0319B62DCB
:101BC000E12D08002000B1005C08B0005B08AF0008
:101BD000B036AF0CB036AF0C5B082F07B2005C0814
:101BE000303DB3006E08AF002F08B4005408B700B2
:101BF0005308B6005608B9005508B800BA013A08AB
:101C00000F3E840098300318013E85000008AF00A5
:101C10002F08EE07AE306E020318122EAE30AF0062
:101C20002F08EE070530AF002F08B5002E08AF00D3
:101C30002F08FB0031088231DA228D31003A031976
:101C4000292E01302000B5023508031D162EFC3068
:101C5000080020005C083302031D302E5B083202AE
:101C60000318422E5C08B3005B08B2006E08AF0098
:101C70002F08B4005408B7005308B6005608B9003E
:101C80005508B8000130AF002F08BA0705303A02F6
:101C9000031CFF2D3408AF002F08EE003708D400D6
:101CA0003608D3003908D6003808D50000300800BF
:101CB0002000A0002008053E860001308700403F3C
:101CC000F100413FF200423FF300433FF400043093
:101CD000F436F30CF20CF10C890B682E2008033E4D
:101CE000860001308700403FF500413FF60075084F
:101CF000F7007608F800F901FA017108F702720896
:101D0000F83B7308F93B7408FA3B7A08A400790899
:101D1000A3007808A2007708A1002108F10022089A
:101D2000F2002308F3002408F40020080F3E860088
:101D300001308700010AA02EF437F30CF20CF10CED
:101D4000890B9C2E7408A4007308A3007208A200DB
:101D50007108A100A41BC12E2408031DB92E23085D
:101D6000031DB92E2208031DB92E80302102031C49
:101D7000C12E0030A4000030A3000030A2007F304C
:101D8000A100A41FD52E80302102FF30223BFF305E
:101D9000233BFF30243B0318D52EFF30A400FF3037
:101DA000A300FF30A2008030A1002108F10020082C
:101DB000093E860001308700710881000800F700A5
:101DC0008B1F292F8B137708053E86000130870073
:101DD000403FF100413FF200423FF300433FF40037
:101DE0000430F436F30CF20CF10C890BF12E770869
:101DF000053E86000130870071088102413172087A
:101E0000813B41317308813B41317408813B7D3115
:101E10007708033E860001308700403FF100413FD4
:101E2000F2007108F3007208F400F501F60177087A
:101E3000053E860001308700730881074131740830
:101E4000813D41317508813D41317608813D8B17D7
:101E500008007708053E860001308700403FF1000A
:101E6000413FF200423FF300433FF4000430F436B8
:101E7000F30CF20CF10C890B372F7708053E860026
:101E8000013087007108810241317208813B413184
:101E90007308813B41317408813B7D317708033EF3
:101EA000860001308700403FF100413FF200710899
:101EB000F3007208F400F501F6017708053E86008C
:101EC000013087007308810741317408813D413139
:101ED0007508813D41317608813D0800FA007A0895
:101EE0008831E6208F31F5007508F9007A089531C0
:101EF00012258F31003A031DAF2F7935533E8600EE
:101F00008701403FF500413FF6007A08043E860015
:101F1000013087000108F700F8010930F735F80DA6
:101F2000890B8E2F76087802031D982F750877028B
:101F30000318AB2F0130F5007A08053E860001300A
:101F40008700750881070F300102031C08007A081A
:101F50009531822508007A089531822508007A0893
:101F6000043E8600013087000108F500F601F535D2
:101F7000F60D7A08063E8600013087007935533E1B
:101F800084008501403F0002F1000131413F003BE8
:101F9000F20096319B268F3176087202031DD22FF4
:101FA000750871020318E12F2030F5007A08023E0F
:101FB000860001308700750881007A08953149252F
:101FC00008000230F5007A08033E860001308700E1
:101FD000750881077A08033E8600013087002030AB
:101FE0000102031C08002030F5007A08023E86003A
:101FF00001308700750881007A089531492508006D
:10200000003402340034003400340034003400342E
:1020100000340034003400340034003464340134BB
:10202000013401340034003400340034003400340E
:10203000003400340034003400340034643401349B
:1020400002340034003400340034003400340034EE
:10205000003400340034003400340034643401347B
:1028E00008000800963184260800200065080800CA
:1028F00020001C15080020001C11080096316E26CF
:10290000080071341434AE3423001D121D16080063
:1029100022000C148C10080022008C140C100800EB
:1029200022008E168E13080022008E178E120800C9
:1029300022000E158E11080022008E150E110800BF
:102940001630210097000800F100710820009B005C
:102950000800F30073088731DC27080072082000A4
:10296000ED007108EC00080072082100D600710823
:10297000D500080072082100C5007108C4000800D5
:1029800072082100C9007108C800080072082100FF
:10299000C7007108C600080072082100CB0071084A
:1029A000CA00080072082100CD007108CC000800A0
:1029B000F030210099002200960108006400800197
:1029C0000131890BDF2C0034FE0012001E00FE0BCB
:1029D000E52C0034F1007108083E860001308700C4
:1029E00081140800F1007108083E8600013087005C
:1029F00081100800F1007108083E86000130870050
:102A000001140800F1007108083E860001308700BB
:102A100001100800FF3020009B009A019110043043
:102A20009C000800F1007108083E86000130870014
:102A3000010E01390800F1007108083E86000130DE
:102A40008700010C890C01390800AD340C34A33423
:102A500006340F340D3471341434FF340734953197
:102A60006525953188310020953196311A269531AA
:102A70009531A12508002000A0008B1F452D8B1348
:102A800020088B3105238B17080020088B31052384
:102A90000800F1007108083E86000130870001152A
:102AA0007108083E86000130870001120800F1001D
:102AB0007108031D5D2D003008007108083E860076
:102AC00001308700010C01390800FA017A089631BB
:102AD0002D2695310130F9007908FA0703307A0282
:102AE00003180800662DF6000930F5007508F1009E
:102AF00076089531B125583E8600013087000108DF
:102B000001390800F1007108083E86000130870095
:102B100001167108033E8600013087008101810A99
:102B200008002000AE012E088B31A2239531013020
:102B30002000AD002D08AE0703302E020318080058
:102B4000932DFC3020009C052E0091012F00910157
:102B500090302E0092004030940040302F009400BE
:102B60000800F400F301741CB92D7108F20072081A
:102B7000F3070310F10D0310F40C7408031DB32DBB
:102B800073080800F20072080319D12D7208083E7C
:102B9000860001308700010CF100F10C710C013945
:102BA0000800003008004A302000CC004C08CF005C
:102BB0004908C1004808C0004F30CC004C08C20092
:102BC0000030893141210800F600033076020318F5
:102BD00008000930F5007508F10076089531B12537
:102BE000583E86000130870001110800F6000330CE
:102BF0007602031808000930F5007508F100760820
:102C00009531B125583E86000130870081150800B6
:102C10009731342796319431D82496319431A024B9
:102C2000963195310A2596318A3177229631953140
:102C30002F2508005030F2007208F3006230F200D5
:102C400073087202031C080073089531022596313F
:102C50000930F2007208F3071E2EF800780895314B
:102C6000F625963178089531E42596310930F7003C
:102C70007708F10078089531B1259631503E9531AD
:102C800002250800F600033076020318562E09309C
:102C9000F5007508F10076089531B125583E86009B
:102CA00001308700010C890C013908000030080050
:102CB0002000C7014708873147279631003A03199A
:102CC000632E0030080001302000C6004608C70708
:102CD00002304702031C5A2E01300800F501750826
:102CE000F4000330F435FF3E031D722E7435203E90
:102CF00088311C2096310130F4007408F507033048
:102D00007502031808006F2E23001908F0007C08D4
:102D1000A83E86008701700881000130F00070082D
:102D2000FC0708307C020318FC010130F000700839
:102D30002000E50708007208803AF3008030730233
:102D4000031DA42E01307102031808007109F3005D
:102D50007209F400F30A0319F40A7308F100740805
:102D6000F2000800F800033078020318C72E09307B
:102D7000F7007708F10078089531B125563E8600B6
:102D800001308700403FF500413FF6000800F501A3
:102D9000F6010800F5007508F3007308F4007508E3
:102DA00086000130870001080319DB2E0130F30093
:102DB0007308F507CF2E74087502F100F201F11BBC
:102DC000F2030800F200033072020318FB2E7208AF
:102DD000F1000330F135FF3E031DEA2E7135223E2E
:102DE00086000130870002300106031DF92E0130F4
:102DF0000800003008000030080000346934303426
:102E000010342034003400340034003401345D3494
:102E100030341034203400340034003400340234B0
:102E2000353430341034203400340034003400346D
:102E30002000EB01EB0A963158269731003A031D2A
:102E4000232F0030080095319125973180310220E1
:102E500097312000C8004808EB0096311A269731B8
:102E600094317E2401300800373022008C0060301D
:102E70008D00AC308E00083021008C0020308D0099
:102E800040308E00EC3023008E0040308D00373013
:102E90008C0024008D018C012100951722009D01DA
:102EA0000800083021004E0203186D2F200067082B
:102EB000B03E86008701010823009A000130F0002F
:102EC00070082000E707083067020318E7010130A7
:102ED000F00070082100CE07080011120800210040
:102EE000C201C30120006108031D080000309631B3
:102EF000E2269731003A031D080001309631E226A0
:102F00009731003A031D080002309631E2269731CE
:102F1000003A031D08002000DD01DD0A0800200042
:102F2000650803198F2F6608A03E860087010108F7
:102F3000F1007108E4006608A83E860087010108D8
:102F4000F1007108F2000130F1007108E607083065
:102F500066020318E6012100911201302000E5020B
:102F600021009116720808002100C201C30120004F
:102F70006108031D08007408031DC22F0130D90623
:102F80000030DA067403031DC92F0230D906003061
:102F9000DA0602307406031DD12F0430D906003042
:102FA000DA0659088D3175259731200059088A3184
:102FB000B82208002000A700A501A60125082707C0
:102FC000A10021088600013087000108A200220824
:102FD000A4002408031908002408A100A201210864
:102FE000F4002208F5002008A3002308F600893128
:102FF000D421973101302000A5070030A63DDE2FF7
:1030000050344934433453344D34413452345434BD
:103010000034523455344E340D340A340034003404
:103020000D341C341E341734503449344334303496
:10303000003450344934433431340034503449344A
:10304000433432340034503449344334333400345C
:1030500050344934433434340034503449344334E4
:103060003534003450344934433436340034503429
:1030700049344334373400346234503400345934E2
:0630800025346334003426
:020000040001F9
:04000E00E4FDFFF717
:00000001FF
