:020000040000FA
:1000000080312328003008007E1480310B1F212806
:100010002100111E15282000111E152821005E0840
:100020008A005D080A00803121282100911E2128C4
:100030002000911E212821005C088A005B080A002C
:1000400080317E10090080312528883100208031E0
:10005000EE00DA30840095308500C930860000302B
:1000600087000C3095318D25803190308400973099
:10007000850050308600013087001B3095318D257A
:100080008031FC015D3084000030850011309531F5
:1000900087258031A03084000030850029309531DB
:1000A0008725803120308400013085003030953143
:1000B00087258031A03084000130850020309531C3
:1000C00087257E1020008231302A2000AD00A80153
:1000D000A901AA01AB01A701A401A5012D080319DB
:1000E000AB287B080319AB282D08083E8600013099
:1000F000870081198B287B08083E86000130870025
:10010000811D8B282D08083E86000130870081154F
:10011000A401A40AC0287B08083E8600013087009D
:100120008119A2282D08083E860001308700811D14
:10013000A2287B08083E8600013087008115A501B2
:10014000A50AC0282D08083E8600013087008119C5
:10015000C0287B08B8282D08031DB1287B08031D83
:10016000A9282D080319C0287B08031DC0282D08C5
:10017000083E8600013087008119C0280030080041
:100180007B08963102268031003A0319CA282000E4
:10019000A701A70A2E0012082000A0002008A10035
:1001A0002E0013082000A0002008A2002F00130832
:1001B0002000A0002008A30096314C2680312000AA
:1001C0002D080319F6282D08043E8600013087000B
:1001D0000108FF3EA0002008AC00A60140302E0020
:1001E00098002F00980122001D1009297B08043E69
:1001F0008600013087000108FF3EA0002008AC0007
:10020000A601A60A2E00980140302F009800220077
:100210001D14F20120002D088331E8238031F20102
:10022000F20A7B088331E823803120006B106B11C8
:10023000EB116E089531522580319531282580319A
:100240002100C401C50120002608031D2D29111F0E
:10025000EB10111F292911133329121B3029EB1020
:10026000121F302912132130A00020082E009806FA
:1002700021302000A00020082F009806C030200068
:10028000A00020082E009406C0302000A000200806
:100290002F00940620002C1893292E001A08200005
:1002A000DD072E001B082000DE3D2F001A0820006D
:1002B000DF072F001B082000E03D2708031D7829D9
:1002C0002E001A0820002A02F1002E001B08200030
:1002D0002B3BF20097314627803171082100C4077B
:1002E0007208C53D2E001B082000AB002E008F2990
:1002F0002F001A0820002A02F1002F001B082000FE
:100300002B3BF20097314627803171082100C4074A
:100310007208C53D2F001B082000AB002F001A08F3
:100320002000AA00C7292E001A082000DD022E0096
:100330001B082000DE3B2F001A082000DF022F00E0
:100340001B082000E03B2708031DAD292E001A08DA
:1003500020002802F1002E00B3292F001A082000E7
:100360002802F1002F001B082000293BF2009731E2
:100370004627803171082100C4077208C53D2E0050
:100380001B082000A9002E001A082000A8002C0835
:1003900003196B140130AC02EB1CD0296B156B14E4
:1003A000EB146B1C232995312B258031200021086B
:1003B0002E009200200022082E0093002000230827
:1003C0002F00930020006B1DE729FB300800EB1D78
:1003D000EB29FA30080024080319F4292D08083EF7
:1003E000860001308700811125080319FD297B084B
:1003F000083E86000130870081112D0896317E2647
:100400008031003A0319112A20002D089531C425A6
:100410008031003A031D112A20002D08873115274D
:1004200080317B0896317E268031003A0319232AD9
:100430007B089531C4258031003A031D232A7B08AF
:100440008731152780312E0096012F0096012E004E
:1004500097012F0097012E0011102F001110BE28B8
:100460009631B32682318B170B17A130F10008307B
:10047000F20095315D2582313730F1000830F2000D
:1004800095315725823122000C112000E501E10150
:10049000E20161088D31F8258231200061088B313D
:1004A0008E238231953125258231003A0319432B61
:1004B00089313D2182312100E00060082000E60002
:1004C0006608893191218231003A0319432B2000BB
:1004D0006408031D762A66082100E0006008C70052
:1004E000200066088831EE208231432B6503031D0E
:1004F000352B54306606031DD62A0F308D31F82572
:10050000823115302100E1004B30E000BE30890B14
:10051000872AE00B872AE10B872A0000153021008B
:10052000E1004B30E000BE30890B942AE00B942AA6
:10053000E10B942A000015302100E1004B30E0006F
:10054000BE30890BA12AE00BA12AE10BA12A0000F1
:1005500015302100E1004B30E000BE30890BAE2A9F
:10056000E00BAE2AE10BAE2A000015302100E100BD
:100570004B30E000BE30890BBB2AE00BBB2AE10BFD
:10058000BB2A000015302100E1004B30E000BE30F6
:10059000890BC82AE00BC82AE10BC82A00002000FA
:1005A000E501E40161088D31F825823146302000F3
:1005B0006606031D432B00308D31F825823115303E
:1005C0002100E1004B30E000BE30890BE52AE00B52
:1005D000E52AE10BE52A000015302100E1004B304F
:1005E000E000BE30890BF22AE00BF22AE10BF22A7E
:1005F000000015302100E1004B30E000BE30890BD7
:10060000FF2AE00BFF2AE10BFF2A00001530210032
:10061000E1004B30E000BE30890B0C2BE00B0C2BC3
:10062000E10B0C2B000015302100E1004B30E00005
:10063000BE30890B192BE00B192BE10B192B000095
:1006400015302100E1004B30E000BE30890B262B35
:10065000E00B262BE10B262B00002000E501E40136
:1006600061088D31F8258231432B54306606031D15
:100670003E2B210047088531E42582314630200099
:1006800066060319E4019731AB278231003A03195A
:10069000522A20006508031D9A2B6403031D5E2B5C
:1006A00001302100C0070030C13D14304006410434
:1006B000031D5E2BC001C1012000E4010030973111
:1006C00075278231003A031D962B0130973175272B
:1006D0008231013A031D962B023097317527823102
:1006E000013A031D962B01302100C2070030C33DA3
:1006F000DC304206053003194306031D522AC201AD
:10070000C30100302000C8009830C90096315C2633
:1007100082312000E501E50AE401E40A2100C0017C
:10072000C10100308D31F8258231E52B2100C20155
:10073000C301522A6403031DC32B01302100C007EB
:100740000030C13D75304102313003194002031CB5
:10075000C32B00308D31F825823101302100C007D4
:100760000030C13D7D304102003003194002031CBE
:10077000C32BC001C101200061088D31F8258231F1
:100780002000E401E50101302100E00060082000C4
:10079000E30721004608031DDB2B00308D31F825CF
:1007A0008231C83020006306031D522AE301210074
:1007B000C601C60A522A07308D31F8258231C83069
:1007C00020006306031D522AE3012100C601522ABC
:1007D000F9007908031908007208031DF22BF601CD
:1007E000F701F62B8030F6000030F7007608F300B2
:1007F0007308F800790A8600013087000108F300C9
:100800007808113EF400F5010730F53D74088600C4
:1008100075088700730881007908053E860001305D
:1008200087000108F3007808193EF400F50107304D
:10083000F53D740886007508870073088100780804
:10084000133EF300F4010730F43D7308860074088A
:10085000870050308100FE30F3007808183E860093
:1008600087010730873D7308810579089531C425D4
:100870008331003A0319502C7908023E860001307A
:1008800087000108F3007808163EF400F5010730F0
:10089000F53D740886007508870073088100632C95
:1008A0007808163EF300F4010730F43D7308860023
:1008B000740887002030810079089531BB25833189
:1008C000003A0319762C7908033E86000130870030
:1008D0000108F3007808173EF400F5010730F53DF4
:1008E00074088600750887007308812C7808173E05
:1008F000F300F4010730F43D7308860074088700A4
:10090000203081007908043E86000130870001080C
:10091000F300F4010930F335F40D890B8B2C72359B
:100920005D3E860087017308C03F7408C13F080020
:100930002000BF00370886008701403FB900413FD3
:10094000BA00390884003A0885001200253A031DD0
:100950001D2D3708860087010130810741310318BA
:10096000810A2100BA01BB01BE01BF01FF30BC00FA
:10097000FF30BD002000370886008701403FB900E6
:10098000413FBA00390884003A0885001200633AF2
:10099000031DEB2C370886008701013081074131A8
:1009A0000318810A38088600870101088400850140
:1009B000023081070008B9003908BE003E08B900BE
:1009C0003908B1003F088A31472220003208B800B8
:1009D0003108B7000800370886008701403FB9009A
:1009E000413FBA00390884003A0885001200253AD0
:1009F000031D122D37088600870101308107413120
:100A00000318810A2530F4000030F5003F08B900D2
:100A10003908F6008A31A92201302000B7000030E1
:100A2000B80008003708860087010130810741318E
:100A30000318810AB701B80108003708860087014A
:100A4000403FB900413FBA00390884003A088500A8
:100A50000008BB00BC013B08F4003C08F5003F085F
:100A6000BD003D08F6008A31A922843120003708F4
:100A7000860087010130810741310318810A0C2D5E
:100A800020005108093E8600013087000108803AA5
:100A9000D20051080E3E8600013087000103FF3A64
:100AA000803AD20203187F2D51080A3E8600013099
:100AB00087000130810741310318810A51080A3E3D
:100AC000860001308700403FD200413FD300003014
:100AD0005302413003195202031CC12D51080A3E32
:100AE0008600013087000030C03FC13F51088600BA
:100AF0000130870001088A31DE228531C12D51087D
:100B0000093E8600013087000108D200D301D21BC4
:100B1000D30351080E3E8600013087005308803A07
:100B2000803C031D952D520801020318B82D023098
:100B30002000D2005108023E860001308700520892
:100B4000810051080A3E8600013087000030C03F16
:100B5000C13F51088600013087000108D2005208C9
:100B6000D000210052088A0051080A008531C12DA9
:100B7000200051080A3E8600013087000030C03F47
:100B8000C13F200051080C3E860001308700013033
:100B9000810741310318810A51080C3E860001305B
:100BA00087001600403AD2001600D204031D080048
:100BB00051080C3E8600013087000030C03FC13F25
:100BC00051088F31712708002000D2005A2E0030C2
:100BD0008D31F825853100308B318E232000E401E2
:100BE000E101E201080001308D31F8258531013045
:100BF0008B318E232000E4010130E1000030E2005F
:100C0000080002308D31F825853102308B318E237A
:100C10002000E4010230E1000030E200080003306F
:100C20008D31F825853103308B318E232000E4018E
:100C30000330E1000030E200080004308D31F82577
:100C4000853104308B318E232000E4010430E10033
:100C50000030E200080005308D31F825853105307F
:100C60008B318E232000E4010530E1000030E200EA
:100C7000080006308D31F825853106308B318E2302
:100C80002000E4010630E1000030E20008000730F7
:100C90008D31F825853107308B318E232000E4011A
:100CA0000730E1000030E20008008C3178240800B1
:100CB000E40108005208D000D1015108003A03199C
:100CC000622E582E5008303A0319E72D013A0319C5
:100CD000F32D033A0319012E013A03190F2E073A97
:100CE00003191D2E013A03192B2E033A0319392E2D
:100CF000013A0319472E623A0319552E582E08005F
:100D00002000C2004208BF00C001BF35C00D363010
:100D10003F0784009830403D85000008C10041082D
:100D2000C4004208BF00C001BF35C00D37303F07C7
:100D300084009830403D85000008C1004108C5008E
:100D40004508BF003F08BB0044088C31D2248631DF
:100D50002000C0004008C300EF2E440896317E26D4
:100D60008631003A0319CD2E20006C08031DBC2EDD
:100D70004408893115218631200044089531A32586
:100D80008631200044088600013087000108BF003A
:100D90003F08F10095312125863120004508963124
:100DA0007E268631003A0319122F20006C08031D9D
:100DB000DD2E450889311521863120004508953101
:100DC000A3258631200045088600013087000108F0
:100DD000BF003F08F100953121258631122F4308CD
:100DE000BF00C001BF1BC0034008003A0319FC2E1E
:100DF000FF3A0319012F122F3F08003A0319AD2EB5
:100E0000122F3F08FB3A0319122F073A0319122F2A
:100E1000013A0319122F033A0319122F013A031949
:100E2000122F122F200043080800FA007A08893197
:100E3000BD218731F5007508F9007A089531BB2589
:100E40008731003A031D562F79355D3E86008701B4
:100E5000403FF500413FF6007A08043E860001302D
:100E600087000108F700F8010930F735F80D890B04
:100E7000352F76087802031D3F2F75087702031877
:100E8000522F0130F5007A08053E860001308700B8
:100E9000750881070F300102031C08007A0896319B
:100EA0002D2608007A0896312D2608007A08043E7F
:100EB0008600013087000108F500F601F535F60DD2
:100EC0007A08063E86000130870079355D3E840051
:100ED0008501403F0002F1000131413F003BF2003B
:100EE00097314627873176087202031D792F7508DE
:100EF00071020318882F2030F5007A08023E860020
:100F000001308700750881007A089531F4250800C2
:100F10000230F5007A08033E86000130870075082C
:100F200081077A08033E86000130870020300102E5
:100F3000031C08002030F5007A08023E86000130CC
:100F40008700750881007A089531F4250800200093
:100F5000D8005808D6000330D635FF3E031DAC2F0D
:100F60005635203ED7005708D900590A860001306F
:100F70008700010896311E268731003A03190800C0
:100F80002000590A86000130870001089631ED26BD
:100F90008731003A03190800200059089531E625E9
:100FA0008731200059088E31EA2687312000590800
:100FB000023E86000130870003300102031CE82F47
:100FC000590886000130870001088A31DE22873106
:100FD00020005908D6005608D1005908023E860064
:100FE000013087000135C93E86008701413F8A00F4
:100FF000403F0A00873108001630210097000800A2
:10100000AE34F80003307802031816280930F700D0
:101010007708F100780896316D26563E860001303B
:101020008700403FF500413FF6000800F501F6015A
:101030000800083021005F020318352820006908E5
:10104000B03E86008701010823009A000130F000BD
:1010500070082000E907083069020318E90101302F
:10106000F00070082100DF070800111208002100BD
:10107000C201C30120006508031D0800003097313C
:1010800075278831003A031D080001309731752714
:101090008831003A031D08000230973175278831E6
:1010A000003A031D08008C3178240800F20021006A
:1010B0005F08031D5D2864005728111A6328720811
:1010C00023009A00782811127208F10020006A08A3
:1010D000B03E86008701710881000130F10071087F
:1010E000EA0708306A020318EA0101302100DF0232
:1010F0002100111608002000A700A501A60125085F
:101100002707A10021088600013087000108A200FE
:101110002208A4002408031908002408A100A20141
:101120002108F4002208F5002008A3002308F60097
:101130008A31A922883101302000A5070030A63D60
:101140007F282100C201C30120006508031D08009B
:101150005008031DAF280130E1060030E2065003BD
:10116000031DB6280230E1060030E20602305006C8
:10117000031DBE280430E1060030E20661088D310F
:10118000F8258831200061088B318E230800F30098
:101190007308023E86000130870002300106031DFD
:1011A000080073080A3E860001308700013081077D
:1011B00041310318810A73080A3E86000130870016
:1011C00016000104031D080073080A3E8600013062
:1011D0008700FF30C03FFF30C13F08002000D20031
:1011E0000429E40108003A30C8009830C9005208C8
:1011F000D000D1015008CA005108CB0096315C26BE
:101200002000E401E40A08005208D000D10151088E
:10121000003A03190C29F3285008463A0319F1281B
:10122000123A0319F128F3280800F70077088931EA
:10123000BD218931F5007508F6008B1F2F298B130E
:1012400076355D3E860087017708063E84000130D2
:101250008500403F803F413F813F8B170800763536
:101260005D3E860087017708063E840001308500D8
:10127000403F803F413F813F080020006708031D39
:10128000432964003D296808A03E860087010108C3
:10129000F10071082100C80020006808A83E8600FF
:1012A00087010108F1007108F2000130F1007108B6
:1012B000E807083068020318E801210091120130A4
:1012C0002000E7022100911672080800F900720858
:1012D000F8007108F7007908F5007508FA00013088
:1012E000F3020030F43B730A0319740A031908006F
:1012F00077088400780885000008F5007508F60076
:101300000130F7070030F83D7608F5007A088600CE
:1013100001308700750881000130F5007508FA0773
:101320006F29F30097290130080000300800730886
:10133000F100F2017208003A03199F2995297108FA
:10134000303A03199329013A03199329033A0319EF
:101350009329013A03199329073A03199329013A6A
:1013600003199329033A03199329013A031993297D
:10137000623A0319932995290800F300F4017408CF
:10138000F100F201F135F20D36307107840098302A
:10139000723D850000087306031DD0290030080047
:1013A0007408F100F201F135F20D37307107840055
:1013B0009830723D850000087306031DE129013055
:1013C00008000130F1007108F407023074020318BC
:1013D000CE29BF29F900790A86000130870001086B
:1013E00088310120893175082000A0007608A1000D
:1013F000A201A3017908053E86000130870020087C
:10140000C03F2108C13F2208C23F2308C33F7908DB
:10141000053E860001308700043081354131810D61
:101420004131810D4131810D7D31890B0D2A08003B
:101430002000C5004108C7004008C6002100B801CF
:10144000B9012000460884004708850012000319EE
:101450003E2A4630C3004308B7004208C40044088F
:10146000B8004508843198248A31200037082100CB
:10147000B807200038082100B93D212A2100390889
:101480002000C100210038082000C0000800200012
:10149000B60021003A083B04031D562A3B082000F1
:1014A000B50021003A082000B4005F2A3A08FF3E48
:1014B0002000B400FF3021003B3D2000B500310882
:1014C000B30033082300A000A101A0302000B30026
:1014D0003308A8003508AA003408A90036088C3162
:1014E000282420002908B2002808B10008007C0840
:1014F000A03E86008701810123001D1D8A2A7C08E9
:10150000A03E86008701811421005A088A005908EC
:101510000A008A3123009D1C982A7C08A03E860080
:1015200087010115210058088A0057080A008A31EE
:101530007C08A03E8600870101080319A62A210025
:1015400056088A0055080A008A31080097312F276B
:1015500008007608031D7608031DB22A7408953129
:101560004D2508007608033E860087011600010419
:101570000319D52A7608033E86008701403FF7000D
:10158000413FF800760A86008701403FF900413F5D
:10159000FA007A08803AFB007808803A7B02031D43
:1015A000D32A7708790203180800760A8600870193
:1015B0000130810741310318810A0800F9007908D8
:1015C000F7000330F735FF3E031DE22A7735203E52
:1015D000F8007808FA007A08023E86000130870099
:1015E00081017A08053E8600013087000030C03F47
:1015F0000030C13FC23FC33F7A080A3E8600013037
:1016000087000030C03FC13F7A080C3E86000130A1
:1016100087000030C03FC13F7A0A86000130870052
:10162000010896318F260800F90079088931BD211B
:101630008B31F5007508F800790896317E268B31DC
:10164000003A03193B2B7908063E860001308700DB
:1016500078355D3E84008501403F0002F100013194
:10166000413F003BF200973146278B317208F7006B
:101670007108F6003D2BF601F70100307702653066
:1016800003197602031C482B79089531932508002D
:10169000790895319B250800210091127730F100DF
:1016A0000A30F200953175258B3121001112193065
:1016B000F1000830F20095317B258B310830230092
:1016C0009F0090309D0024309E0040309B000330EE
:1016D0009C001F30F1001530F200953169258B31E7
:1016E0003130F1001530F20095316F258B31223009
:1016F000F1001530F200953163252100C80120006A
:10170000EA01E9010830F30073082100DF00FC0161
:101710002000E801E701210091160800F300B82B32
:1017200022000D178C160C16080022000D178C16BF
:101730000C12080022000D178C120C160800220053
:101740000D178C120C12080022000D138C160C16AB
:10175000080022000D138C160C12080022000D1335
:101760008C120C16080022000D138C120C120800AB
:101770007308F100F2017208003A0319C02BDA2B4A
:101780007108003A0319902B013A0319952B033A7B
:1017900003199A2B013A03199F2B073A0319A42B1B
:1017A000013A0319A92B033A0319AE2B013A031985
:1017B000B32BDA2B0800FB007B08023E86000130C9
:1017C000870001080319172C7B08033E86000130AF
:1017D0008700403FF900413FFA00FA36F90CFA362B
:1017E000F90C7B08033E86000130870079088102EE
:1017F00041317A08813B7F317B0A860001308700C6
:101800000108883101207508F9007608FA00FA36D7
:10181000F90CFA36F90C7B08033E8600013087008C
:101820007908810741317A08813D7F3108007B0AC0
:101830008600013087000108883101207B08033EC3
:101840008600013087007508C03F7608C13F080058
:101850002000B00021003E1C362C20003008AB00D8
:101860002B08A000280888317B208C312000AA1B7F
:101870003E2C2A08AF002908AE00402CAE01AF0173
:10188000AC01AD012D08803AAB002F08803A2B0245
:10189000031D4C2C2E082C020318602C2030F40061
:1018A0000030F50020003008AB002B08F6008A312C
:1018B000A9228C3101302000AC070030AD3D422C14
:1018C00021003E186C2C20003008AB002B08A00033
:1018D000280888317B208C312000280897315D272B
:1018E00020002E087107A8002F08723DA9000800EB
:1018F000B12C0E30C8009830C90096315C26080023
:101900001330C8009830C90096315C2608001830A2
:10191000C8009830C90096315C2608001D30C80008
:101920009830C90096315C2608002230C8009830F3
:10193000C90096315C2608002730C8009830C900DD
:1019400096315C2608002C30C8009830C9009631CA
:101950005C2608003130C8009830C90096315C26FA
:10196000080020006208003A0319B72CD12C610846
:10197000003A0319792C013A0319802C033A031910
:10198000872C013A03198E2C073A0319952C013A3A
:1019900003199C2C033A0319A32C013A0319AA2C0E
:1019A000D12C08002000BE000530BC003C08BD0062
:1019B0003E08031DE82C3B08031DE82CFF300800FF
:1019C00001302000BD023D08031DE82CFC3008005A
:1019D0003B08BC003C08FB003E08803165208C3190
:1019E000003A031DE02C20003E080319FB2C3E08A2
:1019F0008B3114238C3120003B080319032D3B0845
:101A00008B3114238C3120003E08963102268C3114
:101A1000003A0319132D20003E089531C4258C315E
:101A2000003A031D232D20003B08963102268C31FD
:101A3000003A03192C2D20003B089531C4258C3128
:101A4000003A03192C2D20003B08BC003C08AE00D6
:101A50003E088E316526080000300800200051083D
:101A60000A3E860001308700403FD200413FD3004C
:101A7000003053020930031952020318442D510853
:101A80008931EA218D31482D51088F3171278D31EF
:101A9000200051080A3E860001308700013081078E
:101AA00041310318810A51080A3E8600013087003F
:101AB000403FD200413FD3000030530210300319A1
:101AC0005202031C08005108053E860001308700C1
:101AD000403FD200413FD300423FD400433FD500B6
:101AE0000430D536D40CD30CD20C890B712D51088F
:101AF000033E8600013087005208C03F5308C13FB3
:101B00005108023E8600013087008101810A510898
:101B10000A3E8600013087000030C03FC13F080008
:101B2000200051080A3E860001308700403FD20065
:101B3000413FD30007305302D03003195202031C37
:101B4000B92D510886000130870001088A31DE2254
:101B50008D31200051088600013087000108D20035
:101B60005208D000210050088A004F080A008D3129
:101B700008005108093E8600013087000108803ABC
:101B8000D20051080E3E86000130870051080E3EFB
:101B900084000130850000360102803AD202031829
:101BA00008005108023E8600013087008101810A49
:101BB00051080A3E8600013087000030C03FC13F17
:101BC00051080C3E860001308700FF30C03FFB30DB
:101BD000C13F51088600013087000108D200520839
:101BE000D000210050088A004F080A008D310800FB
:101BF000F300422E953145258D3195313D258D31AE
:101C0000953135250800953145258D3195313D2596
:101C10008D31953139250800953145258D31953126
:101C200041258D31953135250800953145258D317A
:101C3000953141258D31953139250800953149255A
:101C40008D3195313D258D31953135250800953102
:101C500049258D3195313D258D3195313925080046
:101C6000953149258D31953141258D319531352578
:101C70000800953149258D31953141258D319531BA
:101C8000392508007308F100F2017208003A0319BF
:101C90004A2E642E7108003A0319FA2D013A0319ED
:101CA000032E033A03190C2E013A0319152E073A95
:101CB00003191E2E013A0319272E033A0319302E59
:101CC000013A0319392E642E08002000B1002100CA
:101CD00045082000B000210044082000AF00B036C5
:101CE000AF0CB036AF0C2100440820002F07B20023
:101CF000210045082000303DB3006E08AF002F08DA
:101D0000B4005E08B7005D08B6006008B9005F085F
:101D1000B800BA013A08093E840098300318013E21
:101D200085000008AF002F08EE07AE306E020318E2
:101D30009D2EAE30AF002F08EE070530AF002F0804
:101D4000B5002E08AF002F08FB0031088031652058
:101D50008E31003A0319B42E01302000B502350847
:101D6000031DA12EFC30080021004508200033028D
:101D7000031DBE2E21004408200032020318D42E79
:101D8000210045082000B300210044082000B200D3
:101D90006E08AF002F08B4005E08B7005D08B600FB
:101DA0006008B9005F08B8000130AF002F08BA071B
:101DB00005303A02031C8A2E3408AF002F08EE00CB
:101DC0003708DE003608DD003908E0003808DF009B
:101DD000003008002000A0002008053E86000130E9
:101DE0008700403FF100413FF200423FF300433F94
:101DF000F4000430F436F30CF20CF10C890BFA2EDB
:101E00002008033E860001308700403FF500413F37
:101E1000F6007508F7007608F800F901FA01710874
:101E2000F7027208F83B7308F93B7408FA3B7A082A
:101E3000A4007908A3007808A2007708A10021086F
:101E4000F1002208F2002308F3002408F40020081F
:101E50000F3E860001308700010A322FF437F30C61
:101E6000F20CF10C890B2E2F7408A4007308A30048
:101E70007208A2007108A100A41B532F2408031D9F
:101E80004B2F2308031D4B2F2208031D4B2F80309F
:101E90002102031C532F0030A4000030A3000030A7
:101EA000A2007F30A100A41F672F80302102FF30E5
:101EB000223BFF30233BFF30243B0318672FFF30CA
:101EC000A400FF30A300FF30A2008030A100210851
:101ED000F1002008093E860001308700710881006A
:101EE0000800F7008B1FBB2F8B137708053E860079
:101EF00001308700403FF100413FF200423FF300D4
:101F0000433FF4000430F436F30CF20CF10C890B6F
:101F1000832F7708053E8600013087007108810213
:101F200041317208813B41317308813B4131740872
:101F3000813B7D317708033E860001308700403FBA
:101F4000F100413FF2007108F3007208F400F5015E
:101F5000F6017708053E8600013087007308810787
:101F600041317408813D41317508813D4131760828
:101F7000813D8B1708007708053E860001308700F9
:101F8000403FF100413FF200423FF300433FF40085
:101F90000430F436F30CF20CF10C890BC92F7708DE
:101FA000053E8600013087007108810241317208C8
:101FB000813B41317308813B41317408813B7D3164
:101FC0007708033E860001308700403FF100413F23
:101FD000F2007108F3007208F400F501F6017708C9
:101FE000053E86000130870073088107413174087F
:101FF000813D41317508813D41317608813D0800C0
:10200000003402340034003400340034003400342E
:1020100000340034003400340034003464340134BB
:10202000013401340034003400340034003400340E
:10203000003400340034003400340034643401349B
:1020400002340034003400340034003400340034EE
:10205000003400340034003400340034643401347B
:102A3E0008000800080097312F27080020006708BB
:102A4E00080020001C15080020001C1108009731FA
:102A5E001927080023001D121D16080022000C1055
:102A6E008C14080022008C100C14080022008E1208
:102A7E008E17080022008E138E16080022000E11EB
:102A8E008E15080022008E110E150800F300730833
:102A9E00883156200800F100710820009B000800C4
:102AAE0072082100D0007108CF00080072082100C2
:102ABE00D2007108D100080072082100D6007108FA
:102ACE00D500080072082100DA007108D90008004C
:102ADE0072082100D8007108D70008007208210082
:102AEE00DC007108DB00080072082100DE007108AE
:102AFE00DD000800F0302100990022009601080048
:102B0E00640080010131890B882D0034FE00120013
:102B1E001E00FE0B8E2D0034F1007108083E86005B
:102B2E000130870081140800F1007108083E86000C
:102B3E000130870081100800F1007108083E860000
:102B4E000130870001140800F1007108083E86006C
:102B5E000130870001100800FF3020009B009A0111
:102B6E00911004309C000800F1007108083E8600A8
:102B7E0001308700010E01390800F1007108083E8E
:102B8E00860001308700010C890C0139080096314E
:102B9E00102695319731C72795319631C526953137
:102BAE0096314C2608002E340D34403405349034C2
:102BBE000D342034153420341534213415342000CE
:102BCE00A0008B1FF02D8B1320088B31DB238B176E
:102BDE00080020088B31DB230800F1007108083E45
:102BEE0086000130870001157108083E860001300D
:102BFE00870001120800F1007108031D082E003035
:102C0E0008007108083E860001308700010C01396A
:102C1E000800FA017A089631D82696310130F9006B
:102C2E007908FA0703307A0203180800112EF6000D
:102C3E000930F5007508F100760896316D26583E7C
:102C4E00860001308700010801390800F100710883
:102C5E00083E86000130870001167108033E86008B
:102C6E00013087008101810A08002000DB015B082A
:102C7E008731A727963101302000DA005A08DB078A
:102C8E0003305B02031808003E2EFC3020009C052A
:102C9E002E0091012F00910190302E0092004030B5
:102CAE00940040302F00940008004A302000CC00E1
:102CBE004C08CF004908C1004808C0004F30CC0076
:102CCE004C08C20000308A3118220800F400F301CB
:102CDE00741C752E7108F2007208F3070310F10DC3
:102CEE000310F40C7408031D6F2E73080800F20015
:102CFE00720803198D2E7208083E86000130870077
:102D0E00010CF100F10C710C0139080000300800C3
:102D1E00F60003307602031808000930F500750836
:102D2E00F100760896316D26583E860001308700F8
:102D3E0001110800F600033076020318080009306E
:102D4E00F5007508F100760896316D26583E86001E
:102D5E0001308700811508009731E32796319531B0
:102D6E00812596318731FC2796319531B3259631E1
:102D7E008B314C2396319531CE2508005030F20020
:102D8E007208F3006230F20073087202031C08002E
:102D9E0073089531AB2596310930F2007208F307AE
:102DAE00C92EF80078089631A1269631780896310A
:102DBE008F2696310930F7007708F10078089631A2
:102DCE006D269631503E9531AB250800F600033046
:102DDE0076020318012F0930F5007508F100760808
:102DEE0096316D26583E860001308700010C890C05
:102DFE0001390800003008002000C701470886315D
:102E0E0080269731003A03190E2F0030080001304A
:102E1E002000C6004608C70702304702031C052FD4
:102E2E0001300800F5017508F4000330F435FF3E5B
:102E3E00031D1D2F7435203E8831C7209731013078
:102E4E00F4007408F50703307502031808001A2FF2
:102E5E0023001908F0007C08A83E86008701700840
:102E6E0081000130F0007008FC0708307C02031866
:102E7E00FC010130F00070082000E707080072081E
:102E8E00803AF30080307302031D4F2F0130710220
:102E9E00031808007109F3007209F400F30A03190C
:102EAE00F40A7308F1007408F2000800F5007508C2
:102EBE00F3007308F40075088600013087000108DE
:102ECE0003196E2F0130F3007308F507622F740893
:102EDE007502F100F201F11BF2030800F20003305B
:102EEE00720203188E2F7208F1000330F135FF3E87
:102EFE00031D7D2F7135223E860001308700023082
:102F0E000106031D8C2F0130080000300800003030
:102F1E000800003469343034103420340034003466
:102F2E000034003401345D34303410342034003435
:102F3E00003400340034023435343034103420344C
:102F4E0000340034003400342000ED01ED0A9731D6
:102F5E0003279731003A031DB62F00300800963133
:102F6E003C2697318031022097312000DC005C082E
:102F7E00ED009631C526973195312E25013008008A
:102F8E000030F1009030F2003030F3000030F400E9
:102F9E0020308931662197312000A00120088A3126
:102FAE00DE2297310130FB007B082000A0070330A2
:102FBE00200203180800D52F373022008C00603015
:102FCE008D00AC308E00083021008C0020308D003A
:102FDE0040308E00EC3023008E0040308D003730B4
:102FEE008C0024008D018C012100951722009D017B
:102FFE00080050344934433453344D344134523440
:10300E005434003400340D341C341E341734503410
:10301E004934433430340034503449344334313439
:10302E00003450344934433432340034503449344B
:10303E00433433340034503449344334343400345C
:10304E0050344934433435340034503449344334E5
:10305E003634003450344934433437340034623417
:0C306E00503400345934253463340034ED
:020000040001F9
:04000E00ECFDFFFF07
:00000001FF
