:020000040000FA
:1000000080312328003008007E1480310B1F212806
:100010002100111E15282000111E152821004D0851
:100020008A004C080A00803121282100911E2128D5
:100030002000911E212821004B088A004A080A004E
:1000400080317E100900803125288530840094306D
:1000500085006C3086000030870003309431E8243E
:1000600080312930840095308500CF308600003003
:1000700087000A309431E8248031013084009730C1
:10008000850050308600013087001B309431E82411
:100090008031FC01533084000030850019309431E8
:1000A000E2248031A0308400003085002430943177
:1000B000E2248031203084000130850030309431DA
:1000C000E2248031A030840001308500203094315A
:1000D000E2247E10200080316D2896310C2680317C
:1000E0008B170B17DA30F1001730F2009431B82477
:1000F00080317230F1001730F2009431B224803137
:1001000022000C112000E101D901DA0159088D31DA
:1001100075258031200059088A31B822803100309D
:100120002100BB000030BA000030B9000030B80038
:1001300020005D03031DA028DD018B31F7238031F2
:10014000943179248031003A0319A4299731B527D5
:1001500080312100D90059082000E300630889316B
:10016000A2218031003A0319A42920006008031D50
:10017000C42863082100D90059082000E200630860
:100180008731D9278031A4296103031D9729543071
:100190006306031D2E2907308D31752580311530FA
:1001A0002100DA004B30D900BE30890BD528D90B9D
:1001B000D528DA0BD528000015302100DA004B30A5
:1001C000D900BE30890BE228D90BE228DA0BE228ED
:1001D000000015302100DA004B30D900BE30890B09
:1001E000EF28D90BEF28DA0BEF280000153021009B
:1001F000DA004B30D900BE30890BFC28D90BFC2823
:10020000DA0BFC28000015302100DA004B30D90051
:10021000BE30890B0929D90B0929DA0B09290000FD
:1002200015302100DA004B30D900BE30890B162979
:10023000D90B1629DA0B162900002000E101E00194
:1002400000302100BB000030BA000030B90000309F
:10025000B800200059088D317525803146302000C6
:100260006306031DA42900308D31752580311530BA
:100270002100DA004B30D900BE30890B3D29D90B63
:100280003D29DA0B3D29000015302100DA004B3002
:10029000D900BE30890B4A29D90B4A29DA0B4A29E1
:1002A000000015302100DA004B30D900BE30890B38
:1002B0005729D90B5729DA0B57290000153021008F
:1002C000DA004B30D900BE30890B6429D90B642980
:1002D000DA0B6429000015302100DA004B30D90018
:1002E000BE30890B7129D90B7129DA0B71290000F5
:1002F00015302100DA004B30D900BE30890B7E2941
:10030000D90B7E29DA0B7E2900002000E101E001F3
:1003100000302100BB000030BA000030B9000030CE
:10032000B800200059088D3175258031A42954303A
:100330006306031D9F2962088531F9258031463007
:10034000200063060319E00197311C278031003A31
:100350000319982820006108031D7E2A6003031DED
:10036000CB2901302100B8070030B93D0030BA3D3B
:100370000030BB3D1E30380639043A043B04031DEF
:10038000CB290030BB000030BA000030B90000308B
:10039000B8002000E00100309631E6268031003AB6
:1003A000031D7A2A01309631E6268031013A031D79
:1003B0007A2A02309631E6268031013A031D7A2AE4
:1003C00001302100C2070030C33D0830420607302B
:1003D00003194306031D9828C201C3010030200001
:1003E000C8009830C9009531D725803115302100DB
:1003F000DA004B30D900BE30890BFC29D90BFC291F
:10040000DA0BFC29000015302100DA004B30D9004E
:10041000BE30890B092AD90B092ADA0B092A0000F8
:1004200015302100DA004B30D900BE30890B162A76
:10043000D90B162ADA0B162A000015302100DA0033
:100440004B30D900BE30890B232AD90B232ADA0B73
:10045000232A000015302100DA004B30D900BE30CD
:10046000890B302AD90B302ADA0B302A00001530DC
:100470002100DA004B30D900BE30890B3D2AD90B60
:100480003D2ADA0B3D2A000015302100DA004B30FE
:10049000D900BE30890B4A2AD90B4A2ADA0B4A2ADC
:1004A000000015302100DA004B30D900BE30890B36
:1004B000572AD90B572ADA0B572A00000930200097
:1004C000C8009830C9009531D72580312000E1015E
:1004D000E10AE001E00A00302100BB000030BA0070
:1004E0000030B9000030B80000308D317525803102
:1004F0002000D52A2100C201C30198286003031DF2
:10050000982801302100B8070030B93D0030BA3DCD
:100510000030BB3D3B08031D962A3A08031D962A6E
:10052000303038027530393B031CB62A00308D312B
:100530007525803121003B08031DA52A3A08031DBB
:10054000A52A7D303902031C98280030BB000030FA
:10055000BA000030B9000030B800200059088D31D1
:10056000752580312000E001E10198280130D90093
:1005700059082000DE075F08031DCB2A00308D31AB
:1005800075258031C83020005E06031D9828DE01E5
:10059000DF01DF0A982807308D3175258031C8309A
:1005A00020005E06031D9828DE01DF019828200048
:1005B000AD00A801A901AA01AB01A701A401A501F1
:1005C0002D0803191D2B7B0803191D2B2D08083E30
:1005D0008600013087008119FD2A7B08083E8600CD
:1005E00001308700811DFD2A2D08083E860001305C
:1005F00087008115A401A40A322B7B08083E8600DF
:10060000013087008119142B2D08083E8600013027
:100610008700811D142B7B08083E8600013087006F
:100620008115A501A50A322B2D08083E8600013050
:1006300087008119322B7B082A2B2D08031D232BC1
:100640007B08031D1B2B2D080319322B7B08031D70
:10065000322B2D08083E8600013087008119322B8D
:10066000003008007B0895315B258231003A031980
:100670003C2B2000A701A70A2E0012082000A00092
:100680002008A1002E0013082000A0002008A200CE
:100690002F0013082000A0002008A3009531A525F5
:1006A000823120002D080319682B2D08043E860096
:1006B000013087000108FF3EA0002008AC00A60121
:1006C00040302E0098002F00980122001D107B2B37
:1006D0007B08043E8600013087000108FF3EA00031
:1006E0002008AC00A601A60A2E00980140302F0079
:1006F000980022001D14F20120002D088431A1244D
:100700008231F201F20A7B088431A1248231200077
:1007100069106911E9116E089431A824823194316D
:100720007C2482312000DB01DC012608031D9E2B86
:10073000111FE910111F9A2B1113A42B121BA12BAF
:10074000E910121FA12B12132130A00020082E0047
:10075000980621302000A00020082F009806C03005
:100760002000A00020082E009406C0302000A00029
:1007700020082F00940620002C18042C2E001A08A4
:100780002000D3072E001B082000D43D2F001A089C
:100790002000D5072F001B082000D63D2708031D89
:1007A000E92B2E001A0820002A02F1002E001B0857
:1007B00020002B3BF20096319F26823171082000E9
:1007C000DB077208DC3D2E001B082000AB002E006A
:1007D000002C2F001A0820002A02F1002F001B080D
:1007E00020002B3BF20096319F26823171082000B9
:1007F000DB077208DC3D2F001B082000AB002F0038
:100800001A082000AA00382C2E001A082000D30253
:100810002E001B082000D43B2F001A082000D50210
:100820002F001B082000D63B2708031D1E2C2E007E
:100830001A0820002802F1002E00242C2F001A088C
:1008400020002802F1002F001B082000293BF200A5
:1008500096319F26823171082000DB077208DC3D4B
:100860002E001B082000A9002E001A082000A80056
:100870002C08031969140130AC02E91C412C6915DC
:100880006914E914691C952B94317F24823120006E
:1008900021082E009200200022082E009300200044
:1008A00023082F0093002000691D582CFB300800FE
:1008B000E91D5C2CFA30080024080319652C2D086A
:1008C000083E8600013087008111250803196E2C2F
:1008D0007B08083E86000130870081112D08953184
:1008E000C6258231003A0319822C20002D0895314B
:1008F0001F258231003A031D822C20002D088F31E4
:100900006E2782317B089531C6258231003A031962
:10091000942C7B0895311F258231003A031D942CBD
:100920007B088F316E2782312E0096012F009601B1
:100930002E0097012F0097012E0011102F0011108B
:10094000302BF9007908031908007208031DAB2C3D
:10095000F601F701AF2C8030F6000030F700760882
:10096000F3007308F800790A860001308700010857
:10097000F3007808113EF400F5010730F53D7408E6
:10098000860075088700730881007908053E860097
:10099000013087000108F3007808193EF400F501E2
:1009A0000730F53D740886007508870073088100DC
:1009B0007808133EF300F4010730F43D7308860015
:1009C0007408870050308100FE30F3007808183E2C
:1009D000860087010730873D7308810579089531C6
:1009E0001F258431003A0319092D7908023E86003B
:1009F000013087000108F3007808163EF400F50185
:100A00000730F53D7408860075088700730881007B
:100A10001C2D7808163EF300F4010730F43D7308EE
:100A200086007408870020308100790895311625EA
:100A30008431003A03192F2D7908033E86000130D6
:100A400087000108F3007808173EF400F50107302D
:100A5000F53D740886007508870073083A2D7808FC
:100A6000173EF300F4010730F43D73088600740864
:100A70008700203081007908043E8600013087001D
:100A80000108F300F4010930F335F40D890B442D0E
:100A90007235533E860087017308C03F7408C13F1A
:100AA00008002000BF00370886008701403FB900DA
:100AB000413FBA00390884003A0885001200253AFF
:100AC000031DD62D3708860087010130810741318B
:100AD0000318810AD701D8012100C001C101FF30EC
:100AE000BE00FF30BF002000370886008701403F6E
:100AF000B900413FBA00390884003A088500120065
:100B0000633A031DA42D3708860087010130810751
:100B100041310318810A38088600870101088400E2
:100B20008501023081070008B9003908BE003E087F
:100B3000B9003908B1003F088831922020003208FE
:100B4000B8003108B7000800370886008701403F29
:100B5000B900413FBA00390884003A088500120004
:100B6000253A031DCB2D3708860087010130810708
:100B700041310318810A2530F4000030F5003F08A8
:100B8000B9003908F6008931D42101302000B700BE
:100B90000030B8000800370886008701013081075F
:100BA00041310318810AB701B801080037088600EF
:100BB0008701403FB900413FBA00390884003A0834
:100BC00085000008BB00BC013B08F4003C08F500B0
:100BD0003F08BD003D08F6008931D4218531200051
:100BE0003708860087010130810741310318810AE7
:100BF000C52DF60000302100BB000030BA000030E7
:100C0000B9000030B8007A2E00308D31752585315D
:100C100000308A31B8222000E001D901DA01080051
:100C200001308D317525853101308A31B82220009F
:100C3000E0010130D9000030DA00080002308D31C7
:100C40007525853102308A31B8222000E00102305A
:100C5000D9000030DA00080003308D317525853168
:100C600003308A31B8222000E0010330D90000307F
:100C7000DA00080004308D317525853104308A3161
:100C8000B8222000E0010430D9000030DA0008006A
:100C900005308D317525853105308A31B822200027
:100CA000E0010530D9000030DA00080006308D314F
:100CB0007525853106308A31B8222000E0010630E2
:100CC000D9000030DA00080007308D3175258531F4
:100CD00007308A31B8222000E0010730D900003007
:100CE000DA0008002000E001DD01DD0A0800200034
:100CF000E00108007608F400F5017508003A0319D0
:100D0000822E772E7408303A0319042E013A031903
:100D1000102E033A03191E2E013A03192C2E073AFE
:100D200003193A2E013A0319482E033A0319562E95
:100D3000013A0319642E623A0319722E772E0800C5
:100D400020002408093E8600013087000108803A0F
:100D5000A50024080E3E8600013087000103FF3AFB
:100D6000803AA5020318DF2E24080A3E86000130CF
:100D700087000130810741310318810A24080A3EA7
:100D8000860001308700403FA500413FA6000030AB
:100D90002602413003192502031C212F24080A3E94
:100DA0008600013087000030C03FC13F2408860024
:100DB0000130870001088A3109228631212F240859
:100DC000093E8600013087000108A500A601A51B89
:100DD000A60324080E3E8600013087002608803ACC
:100DE000803C031DF52E250801020318182F023040
:100DF0002000A5002408023E860001308700250857
:100E0000810024080A3E8600013087000030C03F80
:100E1000C13F24088600013087000108A50025088D
:100E2000F400210056088A0055080A008731212F56
:100E3000200024080A3E8600013087000030C03FB1
:100E4000C13F200024080C3E86000130870001309D
:100E5000810741310318810A24080C3E86000130C5
:100E600087001600403AA5001600A504031D0800DF
:100E700024080C3E8600013087000030C03FC13F8F
:100E800024088E31DF2608002000C2004208BF007F
:100E9000C001BF35C00D3C303F0784009830403D55
:100EA00085000008C1004108C4004208BF00C0011D
:100EB000BF35C00D3D303F0784009830403D850070
:100EC0000008C1004108C5004508BF003F08BB003D
:100ED00044088C31512487312000C0004008C300F1
:100EE000B32F44089531C6258731003A0319912F55
:100EF00020006A08031D802F440888316A2087314A
:100F0000200044089431FE248731200044088600E4
:100F1000013087000108BF003F08F10094317524BB
:100F20008731200045089531C6258731003A0319DD
:100F3000D62F20006A08031DA12F450888316A209A
:100F40008731200045089431FE2487312000450870
:100F50008600013087000108BF003F08F10094318E
:100F600075248731D62F4308BF00C001BF1BC003C3
:100F70004008003A0319C02FFF3A0319C52FD62F96
:100F80003F08003A0319712FD62F3F08FB3A031987
:100F9000D62F073A0319D62F013A0319D62F033A51
:100FA0000319D62F013A0319D62FD62F2000430854
:100FB00008002000D200EF2FE00108004030C800F8
:100FC0009830C9005208D000D1015008CA00510819
:100FD000CB009531D7252000E001E00A0800520837
:100FE000D000D1015108003A0319F72FDE2F500825
:100FF000463A0319DC2F123A0319DC2FDE2F0800C2
:10100000373022008C0060308D00AC308E0008300C
:1010100021008C0020308D0040308E00EC30230009
:101020008E0040308D0037308C0024008D018C0103
:101030002100951722009D0108002000A700A501AE
:10104000A60125082707A100210886000130870096
:101050000108A2002208A40024080319080024089B
:10106000A100A2012108F4002208F5002008A30035
:101070002308F6008931D421883101302000A507EA
:101080000030A63D2128F3007308023E860001309F
:10109000870002300106031D080073080A3E86001F
:1010A000013087000130810741310318810A73083C
:1010B0000A3E86000130870016000104031D080067
:1010C00073080A3E860001308700FF30C03FFF30C2
:1010D000C13F0800F70077088831E6208831F50025
:1010E0007508F6008B1F84288B137635533E8600D7
:1010F00087017708063E840001308500403F803F2D
:10110000413F813F8B1708007635533E86008701AB
:101110007708063E840001308500403F803F413F14
:10112000813F08002000B60057085804031D9D2881
:101130005808B5005708B400A3285708FF3EB4006C
:10114000FF30583DB5003108B30033082300A0003C
:10115000A101A0302000B3003308A8003508AA0080
:101160003408A90036088B31522320002908B20028
:101170002808B1000800F9007208F8007108F700AB
:101180007908F5007508FA000130F3020030F43BED
:10119000730A0319740A0319080077088400780891
:1011A00085000008F5007508F6000130F7070030EB
:1011B000F83D7608F5007A0886000130870075084A
:1011C00081000130F5007508FA07C428F300F40126
:1011D0007408F100F201F135F20D3C307107840022
:1011E0009830723D850000087306031DF928003011
:1011F00008007408F100F201F135F20D3D3071077D
:1012000084009830723D850000087306031D0A298A
:10121000013008000130F1007108F4070230740257
:101220000318F728E828F900790A860001308700BA
:1012300001089631B626893175082000A00076088D
:10124000A100A201A3017908053E860001308700B4
:101250002008C03F2108C13F2208C23F2308C33FE6
:101260007908053E86000130870004308135413120
:10127000810D4131810D4131810D7D31890B36293F
:1012800008002000C5004108C7004008C600210032
:10129000BC01BD01200046088400470885001200FB
:1012A000031967294630C3004308B7004208C40049
:1012B0004408B80045088531512589312000370898
:1012C0002100BC07200038082100BD3D4A2921002B
:1012D0003D082000C10021003C082000C00008009B
:1012E0007C08A03E86008701810123001D1D832903
:1012F0007C08A03E860087018114210049088A00ED
:1013000048080A00893123009D1C91297C08A03ED1
:10131000860087010115210047088A0046080A0057
:1013200089317C08A03E86008701010803199F29A6
:10133000210045088A0044080A00893108009631D6
:1013400088260800F300A8290130080000300800B2
:101350007308F100F2017208003A0319B029A629B6
:101360007108303A0319A429013A0319A429033A50
:101370000319A429013A0319A429073A0319A42936
:10138000013A0319A429033A0319A429013A0319BC
:10139000A429713A0319A429123A0319A429013A7C
:1013A0000319A429A62908007608031D7608031D41
:1013B000DD2974089431AD2408007608033E8600C8
:1013C0008701160001040319002A7608033E8600EF
:1013D0008701403FF700413FF800760A8600870109
:1013E000403FF900413FFA007A08803AFB00780854
:1013F000803A7B02031DFE29770879020318080052
:10140000760A860087010130810741310318810A7D
:101410000800F9007908F7000330F735FF3E031D97
:101420000D2A7735203EF8007808FA007A08023E47
:1014300086000130870081017A08053E8600013070
:1014400087000030C03F0030C13FC23FC33F7A0831
:101450000A3E8600013087000030C03FC13F7A0855
:101460000C3E8600013087000030C03FC13F7A0A41
:1014700086000130870001089531E8250800F90051
:1014800079088831E6208A31F5007508F800790876
:101490009531C6258A31003A0319662A7908063E35
:1014A0008600013087007835533E84008501403F37
:1014B0000002F1000131413F003BF20096319F26CE
:1014C0008A317208F7007108F600682AF601F70100
:1014D00000307702653003197602031C732A7908FD
:1014E0009431EE24080079089431F6240800210094
:1014F00091127030F1000930F2009431D0248A3119
:10150000210011125430F1001730F2009431D6242A
:101510008A310A3023009F0090309D0024309E00C5
:1015200040309B0003309C007330F1001430F20017
:101530009431C4248A318830F1001430F20094319F
:10154000CA248A317630F1001430F2009431BE247E
:101550002000E401E801E7010830F30073082100EE
:10156000CE00FC012000E601E501210091160800F3
:10157000F300E22A22000D178C160C160800220038
:101580000D178C160C12080022000D178C120C1669
:10159000080022000D178C120C12080022000D13F7
:1015A0008C160C16080022000D138C160C12080065
:1015B00022000D138C120C16080022000D138C1241
:1015C0000C1208007308F100F2017208003A0319C6
:1015D000EA2A042B7108003A0319BA2A013A0319BE
:1015E000BF2A033A0319C42A013A0319C92A073A40
:1015F0000319CE2A013A0319D32A033A0319D82A28
:10160000013A0319DD2A042B0800FB007B08023E87
:1016100086000130870001080319412B7B08033E37
:10162000860001308700403FF900413FFA00FA365A
:10163000F90CFA36F90C7B08033E8600013087006E
:101640007908810241317A08813B7F317B0A86002B
:101650000130870001089631B6267508F900760832
:10166000FA00FA36F90CFA36F90C7B08033E8600CC
:10167000013087007908810741317A08813D7F3147
:1016800008007B0A86000130870001089631B626E3
:101690007B08033E8600013087007508C03F76084E
:1016A000C13F08002000B0002100401C602B20003A
:1016B0003008AB002B08A000280888311D208B3192
:1016C0002000AA1B682B2A08AF002908AE006A2B4D
:1016D000AE01AF01AC01AD012D08803AAB002F087F
:1016E000803A2B02031D762B2E082C0203188A2B1E
:1016F0002030F4000030F50020003008AB002B084B
:10170000F6008931D4218B3101302000AC07003044
:10171000AD3D6C2B21004018962B20003008AB000B
:101720002B08A000280888311D208B3120002808B4
:101730009631CE2620002E087107A8002F08723D92
:10174000A90008002000AB002B08A9000330A93530
:10175000FF3E031DA72B2935203EAA002A08AC0016
:101760002C0A8600013087000108953177258B31DE
:10177000003A0319080020002C0A86000130870077
:101780000108963146268B31003A031908002000E3
:101790002C0895313F258B3120002C088E3158269E
:1017A0008B3120002C08023E860001308700033078
:1017B0000102031CE32B2C0886000130870001087E
:1017C0008A3109228B3120002C08A9002908A400A5
:1017D0002C08023E8600013087000135CF3E86008E
:1017E0008701413F8A00403F0A008B310800302CBE
:1017F0001430C8009830C9009531D7250800193039
:10180000C8009830C9009531D72508001E30C8009F
:101810009830C9009531D72508002330C80098308A
:10182000C9009531D72508002830C8009830C90074
:101830009531D72508002D30C8009830C900953162
:10184000D72508003230C8009830C9009531D72517
:1018500008003730C8009830C9009531D7250800F6
:1018600020005A08003A0319362C502C5908003A27
:101870000319F82B013A0319FF2B033A0319062C1D
:10188000013A03190D2C073A0319142C013A0319D4
:101890001B2C033A0319222C013A0319292C502C32
:1018A00008002000BE000530BC003C08BD003E081A
:1018B000031D672C3B08031D672CFF300800013017
:1018C0002000BD023D08031D672CFC3008003B08CA
:1018D000BC003C08FB003E088231D7228C31003A24
:1018E000031D5F2C20003E0803197A2C3E088A3124
:1018F0003F228C3120003B080319822C3B088A319F
:101900003F228C3120003E0895315B258C31003A16
:101910000319922C20003E0895311F258C31003A86
:10192000031DA22C20003B0895315B258C31003A29
:101930000319AB2C20003B0895311F258C31003A50
:101940000319AB2C20003B08BC003C08AE003E084D
:101950008D31E225080000300800200024080A3EEE
:10196000860001308700403FA500413FA6000030BF
:1019700026020930031925020318C32C24088931D3
:1019800013218C31C72C24088E31DF268C312000A6
:1019900024080A3E8600013087000130810741316A
:1019A0000318810A24080A3E860001308700403F60
:1019B000A500413FA6000030260210300319250281
:1019C000031C08002408053E860001308700403FC4
:1019D000A500413FA600423FA700433FA8000430B6
:1019E000A836A70CA60CA50C890BF02C2408033EE6
:1019F0008600013087002508C03F2608C13F240823
:101A0000023E8600013087008101810A24080A3ED7
:101A10008600013087000030C03FC13F0800200031
:101A200024080A3E860001308700403FA500413F60
:101A3000A60007302602D03003192502031C372DDB
:101A4000240886000130870001088A3109228D317F
:101A5000200024088600013087000108A500250821
:101A6000F4006D088A006C080A008D310800240813
:101A7000093E8600013087000108803AA50024084D
:101A80000E3E86000130870024080E3E840001309F
:101A9000850000360102803AA502031808002408D8
:101AA000023E8600013087008101810A24080A3E37
:101AB0008600013087000030C03FC13F24080C3E43
:101AC000860001308700FF30C03FFB30C13F240853
:101AD0008600013087000108A5002508F4006D0884
:101AE0008A006C080A008D310800F300BF2D943184
:101AF0009C248D31943194248D3194318C240800B0
:101B000094319C248D31943194248D3194319024DE
:101B1000080094319C248D31943198248D31943176
:101B20008C24080094319C248D31943198248D317B
:101B30009431902408009431A0248D319431942460
:101B40008D3194318C2408009431A0248D3194314E
:101B500094248D319431902408009431A0248D3147
:101B6000943198248D3194318C2408009431A02430
:101B70008D31943198248D3194319024080073086C
:101B8000F100F2017208003A0319C72DE12D710826
:101B9000003A0319772D013A0319802D033A0319EE
:101BA000892D013A0319922D073A03199B2D013A09
:101BB0000319A42D033A0319AD2D013A0319B62DCB
:101BC000E12D08002000B1005C08B0005B08AF0008
:101BD000B036AF0CB036AF0C5B082F07B2005C0814
:101BE000303DB3006E08AF002F08B4005408B700B2
:101BF0005308B6005608B9005508B800BA013A08AB
:101C00000F3E840098300318013E85000008AF00A5
:101C10002F08EE07AE306E020318122EAE30AF0062
:101C20002F08EE070530AF002F08B5002E08AF00D3
:101C30002F08FB0031088231D7228D31003A031979
:101C4000292E01302000B5023508031D162EFC3068
:101C5000080020005C083302031D302E5B083202AE
:101C60000318422E5C08B3005B08B2006E08AF0098
:101C70002F08B4005408B7005308B6005608B9003E
:101C80005508B8000130AF002F08BA0705303A02F6
:101C9000031CFF2D3408AF002F08EE003708D400D6
:101CA0003608D3003908D6003808D50000300800BF
:101CB0002000A0002008053E860001308700403F3C
:101CC000F100413FF200423FF300433FF400043093
:101CD000F436F30CF20CF10C890B682E2008033E4D
:101CE000860001308700403FF500413FF60075084F
:101CF000F7007608F800F901FA017108F702720896
:101D0000F83B7308F93B7408FA3B7A08A400790899
:101D1000A3007808A2007708A1002108F10022089A
:101D2000F2002308F3002408F40020080F3E860088
:101D300001308700010AA02EF437F30CF20CF10CED
:101D4000890B9C2E7408A4007308A3007208A200DB
:101D50007108A100A41BC12E2408031DB92E23085D
:101D6000031DB92E2208031DB92E80302102031C49
:101D7000C12E0030A4000030A3000030A2007F304C
:101D8000A100A41FD52E80302102FF30223BFF305E
:101D9000233BFF30243B0318D52EFF30A400FF3037
:101DA000A300FF30A2008030A1002108F10020082C
:101DB000093E860001308700710881000800F700A5
:101DC0008B1F292F8B137708053E86000130870073
:101DD000403FF100413FF200423FF300433FF40037
:101DE0000430F436F30CF20CF10C890BF12E770869
:101DF000053E86000130870071088102413172087A
:101E0000813B41317308813B41317408813B7D3115
:101E10007708033E860001308700403FF100413FD4
:101E2000F2007108F3007208F400F501F60177087A
:101E3000053E860001308700730881074131740830
:101E4000813D41317508813D41317608813D8B17D7
:101E500008007708053E860001308700403FF1000A
:101E6000413FF200423FF300433FF4000430F436B8
:101E7000F30CF20CF10C890B372F7708053E860026
:101E8000013087007108810241317208813B413184
:101E90007308813B41317408813B7D317708033EF3
:101EA000860001308700403FF100413FF200710899
:101EB000F3007208F400F501F6017708053E86008C
:101EC000013087007308810741317408813D413139
:101ED0007508813D41317608813D0800FA007A0895
:101EE0008831E6208F31F5007508F9007A089531C0
:101EF00016258F31003A031DAF2F7935533E8600EA
:101F00008701403FF500413FF6007A08043E860015
:101F1000013087000108F700F8010930F735F80DA6
:101F2000890B8E2F76087802031D982F750877028B
:101F30000318AB2F0130F5007A08053E860001300A
:101F40008700750881070F300102031C08007A081A
:101F50009531862508007A089531862508007A088B
:101F6000043E8600013087000108F500F601F535D2
:101F7000F60D7A08063E8600013087007935533E1B
:101F800084008501403F0002F1000131413F003BE8
:101F9000F20096319F268F3176087202031DD22FF0
:101FA000750871020318E12F2030F5007A08023E0F
:101FB000860001308700750881007A0895314D252B
:101FC00008000230F5007A08033E860001308700E1
:101FD000750881077A08033E8600013087002030AB
:101FE0000102031C08002030F5007A08023E86003A
:101FF00001308700750881007A0895314D25080069
:10200000003402340034003400340034003400342E
:1020100000340034003400340034003464340134BB
:10202000013401340034003400340034003400340E
:10203000003400340034003400340034643401349B
:1020400002340034003400340034003400340034EE
:10205000003400340034003400340034643401347B
:1028E60008000800080096318826080020006508C0
:1028F600080020001C15080020001C110800963155
:102906007226080074341434AE3423001D121D16CA
:10291600080022000C148C10080022008C140C10E5
:10292600080022008E168E13080022008E178E12C3
:10293600080022000E158E11080022008E150E11B9
:1029460008001630210097000800F10071082000E9
:102956009B000800F300730897319227080072085D
:102966002000ED007108EC00080072082100D60076
:102976007108D500080072082100C5007108C4005E
:10298600080072082100C9007108C8000800720812
:102996002100C7007108C600080072082100CB009C
:1029A6007108CA00080072082100CD007108CC0029
:1029B6000800F0302100990022009601080064000A
:1029C60080010131890BE32C0034FE0012001E0049
:1029D600FE0BE92C0034F1007108083E8600013038
:1029E600870081140800F1007108083E8600013056
:1029F600870081100800F1007108083E860001304A
:102A0600870001140800F1007108083E86000130B5
:102A1600870001100800FF3020009B009A019110EA
:102A260004309C000800F1007108083E8600013061
:102A36008700010E01390800F1007108083E860082
:102A460001308700010C890C01390800AD340C34C3
:102A5600A03406340F340D347434143475341434FD
:102A660095316925953197313827953196311E264E
:102A760095319531A52508002000A0008B1F492D12
:102A86008B1320088B3105238B17080020088B3108
:102A960005230800F1007108083E86000130870012
:102AA60001157108083E86000130870001120800F2
:102AB600F1007108031D612D003008007108083E01
:102AC600860001308700010C01390800FA017A08F6
:102AD6009631312695310130F9007908FA0703302D
:102AE6007A02031808006A2DF6000930F500750809
:102AF600F10076089531B525583E860001308700ED
:102B0600010801390800F1007108083E860001300D
:102B1600870001167108033E860001308700810197
:102B2600810A08002000AE012E088B31A2239531C0
:102B360001302000AD002D08AE0703302E02031829
:102B46000800972DFC3020009C052E0091012F00D7
:102B5600910190302E0092004030940040302F00BA
:102B660094000800F400F301741CBD2D7108F200F6
:102B76007208F3070310F10D0310F40C7408031D1B
:102B8600B72D73080800F20072080319D52D7208D4
:102B9600083E860001308700010CF100F10C710C33
:102BA60001390800003008004A302000CC004C08EB
:102BB600CF004908C1004808C0004F30CC004C087F
:102BC600C2000030893141210800F6000330760248
:102BD600031808000930F5007508F10076089531EC
:102BE600B525583E86000130870001110800F60021
:102BF60003307602031808000930F5007508F10065
:102C060076089531B525583E860001308700811536
:102C160008008831002096319431DC2496319431B5
:102C2600A424963195310E2596318A317722963134
:102C36009531332508005030F2007208F3006230F7
:102C4600F20073087202031C08007308953106250A
:102C560096310930F2007208F307222EF800780840
:102C66009531FA25963178089531E825963109305F
:102C7600F7007708F10078089531B5259631503E72
:102C8600953106250800F6000330760203185A2E01
:102C96000930F5007508F10076089531B525583EDE
:102CA600860001308700010C890C013908000030CC
:102CB60008002000C7014708873144279631003AAB
:102CC6000319672E0030080001302000C6004608B0
:102CD600C70702304702031C5E2E01300800F501CB
:102CE6007508F4000330F435FF3E031D762E743567
:102CF600203E8831432096310130F4007408F507F0
:102D06000330750203180800732E23001908F0001B
:102D16007C08A83E86008701700881000130F0001B
:102D26007008FC0708307C020318FC010130F00033
:102D360070082000E50708007208803AF30080302A
:102D46007302031DA82E01307102031808007109D1
:102D5600F3007209F400F30A0319F40A7308F10088
:102D66007408F2000800F800033078020318CB2E2E
:102D76000930F7007708F10078089531B525563EF9
:102D8600860001308700403FF500413FF60008000D
:102D9600F501F6010800F5007508F3007308F40064
:102DA600750886000130870001080319DF2E0130FF
:102DB600F3007308F507D32E74087502F100F201CB
:102DC600F11BF2030800F200033072020318FF2E13
:102DD6007208F1000330F135FF3E031DEE2E71350A
:102DE600223E86000130870002300106031DFD2EBB
:102DF6000130080000300800003008000034693453
:102E060030341034203400340034003400340134BB
:102E16005D3430341034203400340034003400344F
:102E26000234353430341034203400340034003465
:102E360000342000EB01EB0A96315C269731003A0C
:102E4600031D272F003008009531952597318031D5
:102E5600022097312000C8004808EB0096311E2654
:102E6600973194318224013008000030F10090300F
:102E7600F2003030F3000030F40020308831BB20FF
:102E860097312000A00120088A31092297310130AC
:102E9600FB007B082000A00703302002031808006F
:102EA600462F083021004E020318702F20006708B5
:102EB600B03E86008701010823009A000130F00029
:102EC60070082000E707083067020318E7010130A1
:102ED600F00070082100CE0708001112080021003A
:102EE600C201C30120006108031D080000309631AD
:102EF600E6269731003A031D080001309631E62692
:102F06009731003A031D080002309631E6269731C4
:102F1600003A031D08002000DD01DD0A0800F2006A
:102F260021004E080319932F111A9D2F72082300B2
:102F36009A00B22F11127208F10020006808B03E04
:102F460086008701710881000130F1007108E807E9
:102F5600083068020318E80101302100CE02210082
:102F660011160800200065080319B52F6608A03E53
:102F7600860087010108F1007108E4006608A83E92
:102F8600860087010108F1007108F2000130F100A6
:102F96007108E607083066020318E601210091125F
:102FA60001302000E5022100911672080800210078
:102FB600C201C30120006108031D08007408031D37
:102FC600E82F0130D9060030DA067403031DEF2F0F
:102FD6000230D9060030DA0602307406031DF72FD8
:102FE6000430D9060030DA0659088D317525973137
:102FF600200059088A31B822080050344934433435
:1030060053344D34413452345434003452345534EC
:103016004E340D340A34003400340D341C341E345E
:10302600173450344934433430340034503449343E
:103036004334313400345034493443343234003468
:1030460050344934433433340034503449344334EF
:103056003434003450344934433435340034503435
:1030660049344334363400345034493443343734E5
:103076000034623450340034593425346334003417
:020000040001F9
:04000E00E4FDFFF717
:00000001FF
